:100000000C946C070C949D070C949D070C949D0711
:100010000C949D070C949D070C949D070C949D07D0
:100020000C949D070C949D070C949D070C949D07C0
:100030000C949D070C949D070C949D070C949D07B0
:100040000C949D070C949D070C949D070C949D07A0
:100050000C949D070C949D070C949D070C94851996
:100060000C949D070C94F9190C94CF190C949D07CE
:100070000C949D070C949D070C949D070C949D0770
:100080000C949D070C949D070C949D070C949D0760
:100090000C949D070C949D070C949D070C942F1AAB
:1000A0000C949D070C949D070C949D070C949D0740
:1000B0000C949D070C949D070C949D070C949D0730
:1000C0000C949D070C949D070C949D070C949D0720
:1000D0000C949D070C949D070C949D070C949D0710
:1000E0000C949D070C9499080C945C180C947F0B4D
:1000F0000C946D080C944D190C942F0E0C945319FC
:100100000C9485080C949D080C94940D0C94E512A5
:100110000C94350C0C9481080C942A0D0C94520B01
:100120000C94EA090C947C140C9442180C94580812
:100130000C9462080C947D080C94A9070C948B080D
:100140000C949F070C94CC160C946F0A0C94260BFD
:100150000C946E180C94531B0C94A40D0C949308DF
:100160000C94380B0C9418080C94290B0C94B909B6
:100170000C94C8090C9498080C94DC090C945E0843
:100180000C9473080C94A4110C94270B0C946A081B
:100190000C94A4180C948E180C9454140C9480187D
:1001A0000C948F080C94CD160C94220A0C947708AA
:1001B0000C94280B0C944B0B0C945B190C94660854
:1001C0000C948C095F00030305050405061614FD55
:1001D000FC0EFC0EFE026D05BA080B200600602C1A
:1001E00001210FC4253423391C2C2265C921220189
:1001F0002209A5644621E14500231B8B6164291176
:100200004BC412D961729849C412D961729849C419
:1002100012B14408242149A65B1987846B924829AE
:10022000520A5582B643E81033464AA14AA81291B1
:1002300095E39020002529EEE17B35938A264159EC
:1002400048280B456511A9287D2487C6C62251344C
:10025000240B8A64C1982CA6148C4EE3300026240B
:10026000D0258C4B078AE420991C2493832672584E
:100270001D3AABD984135270561D52A7B4DA2174BB
:100280001B012707A2642E7118281105A23327121B
:100290008D442399DE66B2995000291005A23321BE
:1002A00094CD64337D1A89466A002A10E7E045350B
:1002B0004A9A44442349649434022B154A215C2908
:1002C00087C8217288F07030CA2172881C22042CE1
:1002D0000BE4602B23394446D9002D0765E034F147
:1002E000102E0A84202C23394424002F0FC6213CD1
:1002F000A918540C2A0615838A003013C9255C37C7
:100300009C8C6492997F9BC84493E10C00310BC78D
:10031000295C271C15F79F0E3215C9255C47134D24
:1003200066B6896C3C1D4FA762D5C3A1003317C9BF
:10033000255C47134D66B6896C2C9C83E41399DBCE
:1003400044342B013416C9255C1F174F1923B3D031
:1003500028368A4D829383743C2D3518C9255C73E9
:10036000889CE29038240EB1C5E6E389CC6D229AD0
:1003700095003616C9255C575A91D924E3C988B22D
:10038000E66D229B8C8433003711C9255CF1509EA9
:100390008AE562B97875BC11003815C9255C3794B7
:1003A00049A4D4E2456434858E556A4D4603391715
:1003B000C9255C37144D669299B7C98434194F64C6
:1003C00036C96854033A0D242534233944C4924372
:1003D00044023B0F846533233944C4924364940D33
:1003E000003C114A215C0F111339D32174081D42BE
:1003F00087083D0BC9A45CF140473C1C083E124AEB
:10040000215C2187D02174081D4226729643003F4B
:1004100012C921545712DD6C13D958772431952C09
:10042000044027CF21847B1ECBE4A090AC2411296B
:10043000916422924C449189246A2289D244249A5C
:1004400010E5A0D8587C08024120CE1D741F07CBB0
:100450008173201D1499834272486C1E1B47A707A5
:100460006178181FC927D402421ECC21747198CD1F
:1004700048C3D170341CCD6687E0D274329D4C27BE
:10048000D3C970729001431DCC2174590AB18C25D7
:10049000E33A840EA183E6A039680E89CC23E318E1
:1004A0004D5A03441FCE218471980E69E3D17834EC
:1004B0009FCC27F3C97C329FCC27E3D17834241D0D
:1004C0008600451FCB216C71A00C2753C92C1499B1
:1004D000852223E171249C0567A1C83832950C0F51
:1004E00007461ECB216C71A00C2753C92C1499858B
:1004F0002223E171249C0567C139640E995B014791
:1005000021CD217C598A914863D158328744E690A5
:10051000C81C36874D0FE1D174349D91A8A5080001
:10052000481ECE218451AC8C47E3D178341E8D47D0
:1005300087D278341E8D47E3D178349E140B490A54
:10054000C5254C5119ED7F294A13CA1D645B9EEFE6
:10055000936C429A9026C2916848044B1ECE218427
:10056000512B4D8543E94C3C924FE4103BE43E2136
:100570008FA833E29036A5D40C4C10CA2164519E4A
:10058000EFAF91696428991D0C4D2DD1219C612EEE
:100590009169555A641899856691596816998546E6
:1005A000A1596C129AC526A1598C360BCE66C1D9B9
:1005B00068189CD462054E21CE218441AD5067D489
:1005C0002035584CA10543A4608C120C16A3C428F6
:1005D000313C1B8BCA21004F1DCE21846926D1C618
:1005E000A3F1640EB143EC103BC40EB1439647E354
:1005F00019896C04501ECC21747110CE4843CA90E6
:1006000032A40C2933D2213807CD4173D01C348752
:10061000D40151284E22836926D1C6A3F1640EB1BC
:1006200043EC103BC40EB1D026A39168269951CA61
:1006300076A81C3A8983EAB01100521FCD2184713B
:10064000A00D49D3D174341D0D6787E86C381BCEDB
:1006500068C3D970369C1827005316CA216447090D
:10066000AD0C25D308D97A355BCBD5D324540254AD
:100670001CCB216C7130ADCD6433D92C3887CC21A3
:1006800073C81C3287CC2173C8BC06551ECE21848A
:1006900051AC8C47F3D83C368FCD63F3D83C368FC2
:1006A000CD63F3D83C38941B015622CF1D7461AC46
:1006B0009067F320353C0D4FE3B3386416074DE2E5
:1006C000B0491C3887CEC171781C005730D41D9CAE
:1006D00061315568C4D9701AA4D1C2335A78460B17
:1006E0005322943864129AC42193D0240EA1D1616C
:1006F000C3396C380786E3D0701800581FCF218C9F
:1007000063AA11A734F9480EB1C3E8503AAC0EB34E
:10071000434464E174481B538A06591FCD217C6110
:10072000A35065D3204D3A0B53E2903A680E9BC319
:10073000E6B0396C0E9B436E005A19CC216CF11057
:100740002E4FC294289D0E9943E8AC1172645C3E12
:100750001C025B0A04A63361D2FF13015C12C8219C
:100760004C21968BE562B9582E968BE562015D0AA5
:1007700004A23341D2FF93015E0E08A14D279612C9
:1007800069222D42A2005F0749604BF14060088555
:10079000A43E215B1461122A215C739A4D8463DAB2
:1007A000646D329B8C9806621FCC1D644107CD415D
:1007B00073D01C34074D88B4D174329D4C27D3C9F3
:1007C00074421B496A00630F292154571A19CB5BE5
:1007D0002333190900641DCC216C4F07CD4173D020
:1007E0001C34A48C6694E9643A994EA693E9684651
:1007F000A41065122A215C471C4D86C6C3413E8E5B
:100800000C652500660EC8213C4793EC3AB44DF7C1
:10081000B106671EEB215B0F924346C6D14C2813ED
:10082000CA4643A31C74081E22D289583294DD00A4
:10083000681ECC216C4107CD4173D01C34074D6A32
:1008400024D270341C0D47C3D170349C940A690CB7
:10085000C52134335A0792F64B016A0F471633B954
:100860001D8DB83F5A2C2212006B1DCC216C410704
:10087000CD4173D01C34078D4A33E1283C115F27EA
:10088000C4116D46A9186C0AC5213441DAFFA500D0
:100890006D183321A441A9D84825D27069B8345CB9
:1008A0001A2E0D97862BA5066E152C216C41A99149
:1008B00048C3D170341C0D47C3D170522A6F0F2B1F
:1008C0002164579C4DA6BE4E66C31A00701CAC1D19
:1008D000633122D246D3C974329D4C27D3096D347B
:1008E00021CE4173D01C5207711CAC21634712CD3D
:1008F00028D3C974329D4C27D3D18C489983E6A064
:1009000039680E29720F28214C4111512423C974D2
:10091000C71A0073122921544509C924C388F16AF2
:100920002D4A2225007411A72144178E0A67A6E1DB
:100930009E22A310050075152C216C51220D47C372
:10094000D170341C0D47C3115B850076142A1D4CF1
:10095000519A0C43C3D828388A92E97288100077DC
:100960001B301D7C51294D66C3D06C181B9182230E
:1009700052944426D1857288500878122B216461E4
:10098000619351A4F579554293512806791BAB2107
:1009900063519B4C43D3D82C388B4EC293F81C32F6
:1009A000074565D1497C0E7A0E29215471A0D5885E
:1009B000DC8AC403017B0E05A2332712EDA4281B99
:1009C000ED26147C07C2315CF1037D0F05A23321B3
:1009D000948DB60945A23DA9017E0B6A2465B572C6
:1009E000888C460000000004FFFF00005F00020248
:1009F0000304030504050C00FE07FE08FF0139028D
:100A00008503AC2005006A072107394367A8002247
:100A1000079B56275901230B3542AF1AAA4C69A8E8
:100A20000A240D4D3E37AF4AE59D54B523002509F4
:100A30003D4247CEDC3905260C3D422FA7987295E2
:100A40006454012705195767280ACB3E37C514EBB4
:100A50009803290BCB3E27C71CAB9822002A0A3DDE
:100A600042B7AA765ECD082B0A2D4637A3386446D6
:100A7000112C071B3E4F8D042D060D4E67082E06C8
:100A8000924267042F0C3D421FE58C728D72460026
:100A90003009BC424F45CFA4003108BB422FC9AE3C
:100AA00001320A3D426FE58C727B08330C3D426790
:100AB0006894B3863A2D00340C3D423FCB54A6A136
:100AC000334A00350C3D42E74623C38C745A003646
:100AD0000C3D4257E68C46CA3A2D00370D3D426721
:100AE000689433CA19651401380B3D426F659D56F1
:100AF000D66901390C3D426F659D4646394A003A38
:100B000007AA4267C4113B09333ECF466A24003C22
:100B100007AB4637D5053D081D4A676838043E08CF
:100B2000AB46275725003F0A3D426FE536CA74049D
:100B3000400C3D426F6535525223C305410A3D4288
:100B40006F653D46B603420C3D4267C42AA659C5AF
:100B5000A100430C3D426F658D32CA28A705440DA4
:100B60003D4267C42AA698628A4301450C3D42E78C
:100B700046198D94514643460D3D42E746198D94E2
:100B800051461901470C3D426F658D328A3B2D005D
:100B900048093D4227DB63643B4908BB4267C5AE59
:100BA000014A0C3D4277679451466594004B0B3DDA
:100BB0004227CB54EA14AB1C4C0E3D4227A38C3287
:100BC000CA28A38C86004D093D4227AF95B43B4E01
:100BD0000A3D4227EBA992DC3A4F093D426F65EF8F
:100BE000B400500D3D4267A4AC87CA28A38C0051C5
:100BF0000A3D426F6557925105520B3D4267A4ACC6
:100C0000872AAB1C530B3D426F650D37D4690154E5
:100C10000E3D4267C88C32CA28A38C220055083D7D
:100C20004227FB4E0B560A3D4227BB53997204578D
:100C3000093D42277B25D505580A3D4227EB5457ED
:100C4000B50E590C3D4227EB5467945146115A0A90
:100C50003D42676894BBD1105B08CB3E67C43E073A
:100C60005C0D3D4227C38C32CC30A30C035D08CB16
:100C70003E67F639025E071D5637A73A5F060D3A02
:100C8000670860069B562717610A2D426FC33474AC
:100C90001A01620C3D4227A38C46CAF65000630A33
:100CA0002D426F658D725A00640B3D421F6594861C
:100CB000B6D308650A2D426FE5A1325C00660B3D94
:100CC0004257567967945106670B3D3A6F653B8DE5
:100CD0008CD202680B3D4227A38C46CAEE006908FD
:100CE000BB422F23D91A6A0ACC3A3F63DD964901E9
:100CF0006B0C3D4227A38CB24CB3CA016C07BB42BC
:100D000047F61A6D0A2D4247B5545249156E082D03
:100D1000422799DA0E6F092D426F653B2D00700C4A
:100D20003D3A67A46C0F95514600710B3D3A6F68D0
:100D30003B8D8C320A720B2D4227991A6594110053
:100D4000730A2D426F68B8E15000740C3D4237A31E
:100D500038644619652875082D42273B950A76099F
:100D60002D4227DBA98E0077092D42275B497501AB
:100D700078092D4227A7BAAA03790A3D3A27DBA9A9
:100D80006E23007A082D4267E8F6107B09CB3E37C8
:100D9000C52AC73A7C06493FE7017D0ACB3E27C7F3
:100DA0003AC52A027E091D4A2FAA2413000000001A
:100DB00004FFFF000000002100240027002A002D6E
:100DC000003000330001010000040107010A0100A6
:100DD000002200250028002B002E003100340002E4
:100DE000010000050108010B01000020002300267E
:100DF0000029002C002F0032000001000003010632
:100E00000109010505050507050808080802020291
:100E1000020A0A0808040404040101010101010195
:100E2000010303030303030303040707070C0C0C6C
:100E30000C0C0C0C0C020202020606060606060644
:100E4000060B0B0B0B0B0B0B0B01021020200808E1
:100E5000102040102040800201020108040201011C
:100E60000204081020408080402010080402018005
:100E7000040201804020100804020108040201015C
:100E80000204081020408001020408102040800065
:100E9000000A0B02090C0D0E0807030401000000F4
:100EA0000000000000000000000000000000000042
:100EB00000000000000000000000001211100000FF
:100EC0000000000000000000000000000000000022
:100ED000000000000000531B11241FBECFEFD1E221
:100EE000DEBFCDBF00E00CBF14E0A0E0B2E0E8EA56
:100EF000F3E400E00BBF02C007900D92AC37B107DE
:100F0000D9F72AE0ACE7B4E001C01D92A93AB207D4
:100F1000E1F717E0CCE6D7E000E006C02197010931
:100F2000802FFE010E94C321CB36D10780E0080745
:100F3000A9F70E94541C0C94D2210C940000662343
:100F400029F06A3019F0862F90E008958FEF9FEF17
:100F50000895AF92BF92CF92DF92EF92FF920F93DC
:100F6000CF93DF93EC01DA017901942F9770E1E0E0
:100F7000F0E09F01092E01C0220F0A94EAF7522FD8
:100F80006E018AE8C80ED11CF601808140E08230F3
:100F900018F4422F813049F15D01F8EFAF22E8AD3E
:100FA000F9AD28813981D90150968C918A9D9001A3
:100FB0008B9D300D1124620F731FDF01A60FB71F29
:100FC00001111AC0EA0EFB1E8C91842B85278D938C
:100FD000AE15BF05C9F7DF91CF910F91FF90EF904C
:100FE000DF90CF90BF90AF90089550E0D5CF440FE1
:100FF000550FE114F10479F33C91342B35273C93E0
:101000009F5F9770E1E0EE1AF1089111F0CF2CADDF
:101010003DADA20FB31FF6018081823028F48130EC
:1010200009F051E041E0E5CF51E0E3CF80E00895E1
:1010300090E080E00895CF93DF93C3E1DAE08FAFD3
:10104000EAADFBAD0190F081E02D87E19AE01995C2
:10105000EAADFBAD0280F381E02D87E19AE0DF91FC
:10106000CF9119949B01DC011896ED91FC9141E020
:1010700067E119948150823108F05AC0E82FF0E0FE
:101080008827EA5BF74F8F4F0C94C32166086A08E4
:1010900058085E08620898086D08730877087D088C
:1010A000810885088B088F089808930899089D087F
:1010B000809180008F7780938000089580918000D8
:1010C0008F7DF9CF80918000877FF5CF84B58F77B2
:1010D00084BD089584B58F7DFBCF8091B0008F775C
:1010E0008093B00008958091B0008F7DF9CF8091FA
:1010F00090008F77809390000895809190008F7D6D
:10110000F9CF80919000877FF5CF8091A0008F77F5
:101110008093A00008958091A0008F7DF9CF8091E9
:10112000A000877FF5CF809120018F7780932001E9
:101130000895809120018F7DF9CF80912001877FD4
:10114000F5CFCF93DF93282F30E0F901E157F14F2E
:101150008491F901E75BF14FD491F901ED5FF14F13
:10116000C491CC23A1F081110E943A08EC2FF0E049
:10117000EE0FFF1FE751F24FA591B491EC91ED23D3
:1011800081E090E009F480E0DF91CF91089580E064
:1011900090E0FACF1F93CF93DF93282F30E0F9012F
:1011A000E157F14F8491F901E75BF14FD491F901D7
:1011B000ED5FF14FC491CC23A9F0162F81110E944D
:1011C0003A08EC2FF0E0EE0FFF1FE153F24FA5912C
:1011D000B4918FB7F894EC91111108C0D095DE232B
:1011E000DC938FBFDF91CF911F910895DE2BF8CF55
:1011F000CF93DF9390E0FC01E75BF14F24918D5F8B
:10120000914FFC0184918823C9F090E0880F991FC9
:10121000FC01EB54F24FA591B491FC01E153F24F64
:10122000C591D49161110DC09FB7F8948C91209510
:1012300082238C938881282328839FBFDF91CF91BD
:101240000895623051F49FB7F8943C91822F8095B5
:1012500083238C93E8812E2BEFCF8FB7F894EC91FA
:101260002E2B2C938FBFEACF3FB7F8948091660561
:1012700090916705A0916805B091690526B5A89B76
:1012800005C02F3F19F00196A11DB11D3FBFBA2F18
:10129000A92F982F8827BC01CD01620F711D811DD8
:1012A000911D42E0660F771F881F991F4A95D1F75D
:1012B00008958F929F92AF92BF92CF92DF92EF925A
:1012C000FF926B017C010E9434094B015C01C11447
:1012D000D104E104F104B9F00E94340968197909D4
:1012E0008A099B09683E73408105910580F321E0DE
:1012F000C21AD108E108F10888EE880E83E0981E32
:10130000A11CB11CE4CFFF90EF90DF90CF90BF9075
:10131000AF909F908F900895AF92BF92CF92DF923F
:10132000EF92FF920F931F93CF93DF936C017B019A
:101330008B01040F151FEB015E01AE18BF08C0172B
:10134000D10759F06991D601ED91FC910190F0819E
:10135000E02DC6011995892B79F7C501DF91CF9151
:101360001F910F91FF90EF90DF90CF90BF90AF90C3
:101370000895FC01538D448D252F30E0842F90E09B
:10138000821B930B541710F0CF9608950197089580
:10139000FC01918D828D981761F0A28DAE0FBF2F49
:1013A000B11D5D968C91928D9F5F9F73928F90E09F
:1013B00008958FEF9FEF0895FC01918D828D98170E
:1013C00031F0828DE80FF11D858D90E008958FEF4B
:1013D0009FEF0895FC01918D228D892F90E0805C14
:1013E0009F4F821B91098F73992708958AE695E094
:1013F0000E94EA0921E0892B09F420E0822F089558
:10140000FC01A48DA80FB92FB11DA35ABF4F2C9179
:10141000848D90E001968F739927848FA689B78970
:101420002C93A089B1898C91837080648C93938D67
:10143000848D981306C00288F389E02D80818F7D0A
:1014400080830895EF92FF920F931F93CF93DF93C2
:10145000EC0181E0888F9B8D8C8D98131AC0E889F0
:10146000F989808185FF15C09FB7F894EE89FF89BF
:101470006083E889F98980818370806480839FBF5D
:1014800081E090E0DF91CF911F910F91FF90EF905D
:101490000895F62E0B8D10E00F5F1F4F0F7311276D
:1014A000E02E8C8D8E110CC00FB607FCFACFE889A8
:1014B000F989808185FFF5CFCE010E94000AF1CF26
:1014C000EB8DEC0FFD2FF11DE35AFF4FF0829FB71C
:1014D000F8940B8FEA89FB8980818062CFCFCF930C
:1014E000DF93EC01888D8823B9F0AA89BB89E8894C
:1014F000F9898C9185FD03C0808186FD0DC00FB6F2
:1015000007FCF7CF8C9185FFF2CF808185FFEDCF6F
:10151000CE010E94000AE9CFDF91CF91089580E0CB
:1015200090E0892B29F00E94F60981110E940000A9
:1015300080E090E0892B49F080E090E0892B29F051
:101540000E94000081110E94000080E090E0892B41
:1015500049F080E090E0892B29F00E940000811181
:101560000E94000080E090E0892B49F080E090E04C
:10157000892B29F00E94000081110C94000008952D
:1015800020911405260F3327331F21323105ECF447
:1015900020913A05FC0190E080E0243069F082E07F
:1015A0000895A09114052191AC014E505B4FA40FFA
:1015B000B52FB11D2C930196861798F380911405D1
:1015C000680F6093140580E0089581E008951092FB
:1015D0003A0581E080933C0510923B0561E084E18F
:1015E0000E94CA0861E085E10E94CA08E9EBF0E0C8
:1015F00080818E7F808380818D7F808388E480934B
:10160000B80085E48093BC000895CF93DF9391E008
:101610009093F1048823B9F0C091B800D091BA003A
:101620008091BC008A7B8093BC0060E084E10E94D2
:10163000CA0860E085E10E94CA080E94E70AD093C8
:10164000BA00C093B800DF91CF910895089508952E
:101650000895E091E9048091E804E81730F4F0E09F
:10166000E853FB4F808190E008958FEF9FEF08953E
:101670009091E9048091E8042FEF3FEF981748F428
:10168000E92FF0E0E853FB4F208130E09F5F90931B
:10169000E904C90108958091E8049091E904891B47
:1016A000990B0895CF92DF92EF92FF920F931F93C1
:1016B000CF93DF937C01CB018A012091C7042223C1
:1016C00089F0EB016B01C40ED51ECC15DD0569F068
:1016D0006991D701ED91FC910190F081E02DC70156
:1016E0001995F3CF642F0E94C00AC801DF91CF91F2
:1016F0001F910F91FF90EF90DF90CF900895CF93BF
:10170000DF931F92CDB7DEB769832091C7042223F0
:10171000F9F02091EA04203258F021E030E0FC0199
:101720003383228390E080E00F90DF91CF91089582
:101730008091EB04E82FF0E0E955FB4F998190830D
:101740008F5F8093EB048093EA0481E090E0ECCF1C
:1017500061E0CE0101960E94C00AF7CFDC011A9623
:10176000ED91FC9130E020E01994DC011496ED91AC
:10177000FC9130E020E040E060E11994DC01169635
:10178000ED91FC9130E020E040E069E11994DC014A
:101790001696ED91FC9130E020E040E068E119946C
:1017A0009A01DC011696ED91FC91462F67E11994A0
:1017B000EF92FF920F931F93CF93DF931F92CDB7BA
:1017C000DEB77C018B01D8016C91673129F150F4AF
:1017D0006531A0F40F90DF91CF911F910F91FF9091
:1017E000EF9008956A3118F16E3FA1F7F801418139
:1017F000498369E2C7010E94AE0B0BC0F801418129
:101800004983D7011696ED91FC9130E020E0C701A5
:1018100019950E5F1F4FD7CFF80181818983AE01E3
:101820004F5F5F4F61E0C7010E94D00BF2CF0F5FA7
:101830001F4FD7011696ED91FC9130E020E040E07B
:10184000C7011995C0CF462FDC011696ED91FC918A
:1018500030E020E066E11994462FDC011696ED9108
:10186000FC9130E020E065E11994EF92FF920F9334
:101870001F93CF93DF93EC01042F79016D3009F4AE
:1018800046C050F46B30C9F1693009F49FC06A302A
:1018900009F465C080E046C06E3009F452C06F3074
:1018A00099F70E94C70BF7011381110F110F110F48
:1018B0006C89160F60E4CE010E942C0C612F62959A
:1018C0006F706061CE010E942C0C612F6F70CE0191
:1018D0000E94230CF7016481606BCE010E94230CEF
:1018E000F701408151816281660F660F660FCE015C
:1018F0000E94D00B0150A1F72EC062EB73E044238D
:1019000011F06DEA73E0CE010E94D80B0AC04111BC
:1019100010C066EA73E00E94D80BE881F9818289E1
:101920008C8B81E0DF91CF911F910F91FF90EF9011
:1019300008956FE973E00E94D80BE881F9818389EB
:10194000EFCF0E94C70B61E8CE010E942C0C602FE4
:10195000CE010E94230CCE010E94BE0BE2CFEA858D
:10196000FB8530E020E040E068E2CE011995EE8191
:10197000FF8130E020E040E064E1CE01199541E0D4
:101980006BE4CE010E94AE0BE881F981448169E2EB
:10199000CE010E94AE0B40E06BE4CE010E94AE0B84
:1019A000E881F981448169E2CE010E94AE0B41E0F9
:1019B0006BE4CE010E94AE0BE881F981458169E2BA
:1019C000CE010E94AE0B67EB73E09DCF8CEE93E0EF
:1019D000998388831C8AA5CFDC011896ED91FC9130
:1019E00030E020E040E069E11994DC011896ED91C7
:1019F000FC9130E020E040E068E11994CF93DF9360
:101A00001F92CDB7DEB76983BE016F5F7F4F0E9423
:101A100032080F90DF91CF910895EF92FF921F93BC
:101A2000CF93DF93EC01162F7A010E94F50C60E44E
:101A3000CE010E94FE0CE885F9859701412F67E1F0
:101A4000CE011995CE01DF91CF911F91FF90EF90BC
:101A50000C94EC0CEF92FF921F93CF93DF93EC0169
:101A6000142F7901663181F138F4643109F44BC0E7
:101A7000653179F080E022C06831C9F150F16931F7
:101A8000C9F78091A604882391F1CE010E94EC0C45
:101A90002EC08091A604882319F0CE010E94EC0C80
:101AA000CE010E94F50C60E0CE010E94FE0C612F79
:101AB000CE010E94FE0C81E08093A604DF91CF91BD
:101AC0001F91FF90EF900895642F0E94FE0C81E01B
:101AD000F5CF8091A604882319F0CE010E94EC0C6A
:101AE000A701193138F4612FCE010E940D0D10921B
:101AF000A604EDCF68E1CE010E940D0D185188E1DA
:101B0000E80EF11CEDCF8E898F3F11F488E78E8BA4
:101B1000E885F9859701412F64E1CE01DF91CF91EE
:101B20001F91FF90EF9019940F93FC01E05CFF4F21
:101B30000190F081E02D4E1B5F0BDC01D496ED91FE
:101B4000FC9119950F910895CF93DF93FC01A0812B
:101B5000B18182AD90E09C0143E0220F331F4A9592
:101B6000E1F737AF26AF50962C91509748E0249F6D
:101B70009001112435AF24AF23AD30E0B90153E01B
:101B8000660F771F5A95E1F7EF01C05CDF4F79834D
:101B9000688351964C915197E901C80FD91F50E0C5
:101BA0004C175D0718F4CA01821B930BEF01CE5B43
:101BB000DF4F79836883229623E0880F991F2A9547
:101BC000E1F7860F971F99838883229654968D910B
:101BD0009C91559799838883E85BFF4F56968D912A
:101BE0009C9191838083DF91CF9108950F931F93F0
:101BF000FC01E25BFF4F0190F081E02DDC01A05B76
:101C0000BF4F0D90BC91A02D4A175B0740F4E01721
:101C1000F10748F00417150730F080E019C0E0170D
:101C2000F107C0F3FACFFC01E65BFF4F4081518121
:101C3000845B9F4FFC01808191816817790758F47C
:101C400081E04217530720F081E02617370728F775
:101C50001F910F91089542175307B0F3DECF2F92D3
:101C60003F924F925F926F927F928F929F92AF922C
:101C7000BF92CF92DF92EF92FF920F931F93CF9379
:101C8000DF9300D000D000D01F92CDB7DEB79A8787
:101C90008987865B9F4F9A838983FC01118210821A
:101CA000E985FA85EA5BFF4F4080518029853A85B6
:101CB000245B3F4F3C832B83F90151824082E985AD
:101CC000FA85EE5BFF4F2080318029853A85225BC3
:101CD0003F4F3E832D83F90131822082E985FA85C9
:101CE000EC5BFF4F6080718029853A85205B3F4F18
:101CF00038872F83F90171826082E985FA85E85A75
:101D0000FF4FE080F180E985FA85EC5AFF4FA08013
:101D1000B180E985FA85EA5AFF4FC080D180E98514
:101D2000FA85EE5AFF4F8080918087019501A601C8
:101D3000B40189859A850E94F60D29853A852C572C
:101D40003F4F3A87298781111BC0F90110822A96DB
:101D50000FB6F894DEBF0FBECDBFDF91CF911F91BC
:101D60000F91FF90EF90DF90CF90BF90AF909F903A
:101D70008F907F906F905F904F903F902F9008953D
:101D800081E0E985FA8580838114910421F0E9815D
:101D9000FA8191828082A414B50420F4EB81FC8145
:101DA000B182A0822C143D0420F4ED81FE81D18209
:101DB000C082E614F70458F6EF81F885F182E082DC
:101DC000C6CF0F93CF93DF93E02FDC01AC57BF4F0B
:101DD000FC91FF2309F460C02115310509F45CC0B2
:101DE0002230310538F0023009F04AC06F5F7F4F72
:101DF000621B730B0E2F0170E0FD52C0FC01E25B11
:101E0000FF4F0190F081E02D4E175F0708F444C0AA
:101E1000FC01E05BFF4F0190F081E02D4E175F0762
:101E2000D8F5FC01E45BFF4F0190F081E02DDC016F
:101E3000A65BBF4F0D90BC91A02D260F371F261714
:101E4000370738F56E177F0718F59F0121503109C4
:101E5000A217B30708F56A177B0708F4BD012E1710
:101E60003F0708F4F901E61BF70BEC01AEA9BFA987
:101E700014960D90BC91A02D9F01FD0119950CC0E9
:101E8000033009F0B7CF4F5F5F4F421B530BB2CF08
:101E9000BD016E177F07E0F2DF91CF910F9108959A
:101EA000FC01E65BFF4F0190F081E02D6E177F078C
:101EB00098F3FC01E45BFF4F0190F081E02D6E1779
:101EC0007F0750F7FC01E05BFF4F0190F081E02DB0
:101ED000DC01A25BBF4F0D90BC91A02D240F351FDC
:101EE00024173507A8F44E175F0788F49F01215087
:101EF0003109A217B30780F64A175B0708F4AD0152
:101F00002E173F0708F4F901E41BF50BAECFAD0126
:101F10004E175F0708F6EDCFAF92BF92CF92DF92D8
:101F2000EF92FF920F931F93CF93DF936C01EB011E
:101F30005A017B01E20EF31E9C01240F351F87011D
:101F4000AB01BC0187E19AE00E94F60D811114C03B
:101F5000DF91CF911F910F91FF90EF90DF90CF9085
:101F6000BF90AF90089500E09501AE01B60187E102
:101F70009AE00E94E10E2196EC16FD06A1F7E8CF4B
:101F8000213069F038F0223079F0840F911D47FD3F
:101F90009A950895860F911D67FD9A950895841B63
:101FA000910947FD93950895861B910967FD9395C7
:101FB0000895213069F038F0223079F0861B9109BC
:101FC00067FD93950895840F911D47FD9A95089597
:101FD000860F911D67FD9A950895841B910947FD11
:101FE000939508953F924F925F926F927F928F9256
:101FF0009F92AF92BF92CF92DF92EF92FF920F9398
:102000001F93CF93DF937C01162F442EEC01C25A0D
:10201000DF4F5E806F806C018AE8C80ED11C788427
:102020007518312E711608F4372C8C809D800E8522
:10203000202F462D652D8A819B810E94C00F5C0157
:10204000202F462D652DC4010E94D90FAC014420DC
:1020500079F08C85F6018083232D30E0B501C7012E
:102060000E94E10E171548F017196394512CD7CF31
:102070008B858111F7CF8D85EDCF150D1E836F8276
:10208000DF91CF911F910F91FF90EF90DF90CF9054
:10209000BF90AF909F908F907F906F905F904F9088
:1020A0003F900895DC011A964C911A97ED91FC919E
:1020B0001197249130E0042E02C0359527950A949B
:1020C000E2F7842F860F883068F031961196FC93E2
:1020D000EE93E49198E0941B01C0EE0F9A95EAF715
:1020E0002E2B88501A968C938FEF9FEF01C0880F8C
:1020F0006A95EAF7809582230895FC01E60FF11DA9
:10210000849190E0982F88273196E4918E0F911D4D
:102110000895CF93DF932091710A3091720A2817A6
:10212000390709F490C0EC019093720A8093710A08
:10213000FC0184918093840A3196E491E093850AAE
:10214000FE013296E491E093860AFE013396E49113
:10215000E093870AFE013496E491E093880AFE0139
:102160003596E491E093890AFE013696E491E09376
:102170008A0AFE013796E491E0938B0AFE013896B5
:10218000E491E0938C0AFE013996E491E0938D0A84
:10219000FE013A96E491E0938E0AFE013B96E491AB
:1021A000E0938F0AFE013C96E491E093900AFE01D1
:1021B0003D96E491E093910AFE013E96E491E0930E
:1021C000920AFE013F96E491E093930AFE01709615
:1021D000E491E093940A61E1CE010E947D10909316
:1021E000960A8093950A63E1CE010E947D10909338
:1021F000980A8093970A65E1CE010E947D10909322
:102200009A0A8093990A8091710A9091720A892B97
:10221000D1F08091910A80939D0A4091920A409357
:102220009E0A90919C0A992371F0913079F49091D3
:10223000930A891714F490939D0A8091940A841745
:1022400014F480939E0ADF91CF91089530918E0A05
:102250002091900A082E000C990B622F022E000C80
:10226000770B630F711D37FD7A95861797071CF45E
:10227000320F30939D0A241734F720939E0AE3CF40
:10228000AF92BF92CF92DF92EF92FF920F931F9384
:10229000CF93DF9300D01F921F92CDB7DEB78C0192
:1022A000DC01DA96AC90DA97DB96EC90DB97ED9157
:1022B000FC91B188FE2CD12CC12CD801ED91FC9160
:1022C00011978089D8962D913C911C82FD828B8339
:1022D000B8E08B9FC00111248C9DA0018D9D500DF5
:1022E0009C9D500D1124240F351F3A832983D8015A
:1022F0001496ED91FC919E012F5F3F4F41E06FE0FE
:10230000C8011995F3948F2D8E198A1528F4BFEF03
:10231000CB1ADB0AFB1488F20F900F900F900F90EE
:102320000F90DF91CF911F910F91FF90EF90DF9071
:10233000CF90BF90AF90089587E19AE00E9440113E
:1023400087E19AE00C94B50BCF92DF92EF92FF9267
:102350000F931F93CF93DF93EC01962F683109F40D
:102360004BC0B901993130F49431C9F0973189F0FB
:1023700080E006C0993109F461C09032C9F781E06C
:10238000DF91CF911F910F91FF90EF90DF90CF9051
:10239000089550E087E096E00E94520BF0CF8C85C4
:1023A0009D85AE85BF85892B8A2B8B2B71F4E881A7
:1023B000F981A585B0E020EA36E841E050E00E94CE
:1023C000E81F6C877D878E879F871092E9041092A3
:1023D000E8041092EB041092EA040E94E70A86E2F5
:1023E0009BE0909313058093120587E29BE0909306
:1023F000170580931605C3CF2C853D854E855F85D7
:1024000060E074E284EF90E00E94FB1F20513109EC
:102410004109510956954795379527952093B8005E
:102420008E8990E09595879591E09093C70480936D
:10243000A5041092EB041092EA04A1CFD091EA0413
:10244000D13208F093C0C091A5040E9434096B01F9
:102450007C0180913A05811164C082E080933A0545
:1024600081E080933C058FEF8093390510925E05E3
:10247000D0935D05A7EAB4E0EDE3F5E080E0D81382
:102480007CC010925F0580915F05CC0FC82BC09374
:102490005F0580913B05813009F073C010923B05C8
:1024A0000E9434096B017C0180915F058093BB0021
:1024B0008091ED049091EE04A091EF04B091F004AE
:1024C000892B8A2B8B2B99F00E9434090091ED0403
:1024D0001091EE042091EF043091F0046C197D0905
:1024E0008E099F090617170728073907D8F1809129
:1024F000BC0083FDD9CF85EC8093BC000E943409D9
:102500006B017C0180913A058230E9F180913905B7
:102510008F3F61F180913905803241F18091390519
:1025200025C08091ED049091EE04A091EF04B0914C
:10253000F004892B8A2B8B2B09F48BCF0E94340952
:102540000091ED041091EE042091EF043091F0041D
:102550006C197D098E099F09061717072807390787
:1025600008F077CF8091EC040E94050B1092EB04E9
:102570001092EA041092C70402CF9D9191938F5F4D
:102580007ECF85EEB9CF8091ED049091EE04A091BD
:10259000EF04B091F004892B8A2B8B2B09F4B2CF76
:1025A0000E9434090091ED041091EE042091EF0493
:1025B0003091F0046C197D098E099F0906171707E1
:1025C0002807390708F09ECFCDCF0F931F93CF93E5
:1025D000DF938C01C62F642FCC32E8F4CA3208F0A6
:1025E00041C0C83271F1C93209F442C080E0C03440
:1025F000D0F1CF73F801EC0FF11D868D8F3F91F173
:10260000C031E0F00E94A10821E0892B09F420E00C
:10261000F801218F27C0CD3289F140F384EB8C0F74
:10262000823020F7CF73C00FD12FD11D8E8D411175
:1026300033C061E00E94F80860E08E8D0E94CA08F5
:1026400011C0025E1F4FD0E0F80181918F018F3FD2
:1026500031F061E0D03108F062E00E94F808DF5FFD
:10266000D63191F781E0DF91CF911F910F910895BD
:1026700070E090E080E00E945909F4CF85E090E09E
:10268000433010F082E090E0880F991F880F991F67
:1026900005970197F1F7E6CF62E00E94F808E2CFD4
:1026A00080917B00877F80937B0080E480937C0017
:1026B00080917A00806480937A0080917A0086FD10
:1026C000FCCF6091780070917900072E000C880B88
:1026D000990B27E0660F771F881F991F2A95D1F75E
:1026E0002FEF33E040E050E00E94C91F3093020218
:1026F000209301020895CF93DF938091A40488234F
:1027000009F444C0D091A1048091A304D80FD093C0
:10271000A1048091A2048D0F9927991FCC9794F161
:102720002091A00430E080910102909102022817CC
:10273000390744F148968217930724F11092A404B4
:10274000C0919A03CF5FC0939A03CC2359F061E004
:102750008BE00E94CA08C13051F460E08CE00E9416
:10276000CA080CC060E08BE00E94CA08F6CF61E0A6
:102770008CE00E94CA0861E0C23009F460E08DE09C
:102780000E94CA08D13410F01092A404DF91CF91B6
:1027900008958091A404882361F04091A20450E040
:1027A0006091A10470E08091A0049A0190E00C94E3
:1027B0008C0F089523E030E048E150E06CE370E0D6
:1027C00080910102909102020C948C0F609104029E
:1027D00070E08091050223E030E043E050E090E0BB
:1027E0000C948C0F0F931F93CF93DF93EC018C010C
:1027F000005B1F4F8C81882351F02B8130E04A8190
:1028000050E0698170E0888190E00E948C0F2596ED
:10281000C017D10779F7DF91CF911F910F910895DC
:1028200060E082E00E94CA0861E083E00E94CA087A
:1028300061E084E00E94CA0860E085E00E94CA0866
:1028400060E086E00E94CA0860E087E00E94CA0853
:1028500060E088E00E94CA0868EE73E080E090E0E3
:102860000C94590961E082E00E94CA0861E083E0AB
:102870000E94CA0861E084E00E94CA0861E085E025
:102880000E94CA0861E086E00E94CA0861E087E011
:102890000E94CA0860E088E00E94CA0868EE73E0FF
:1028A00080E090E00C945909CF92DF92EF92FF9272
:1028B0000F931F93CF93DF936C01EB017B01E40E29
:1028C000F51E10E000E0CE15DF0561F06991D6013C
:1028D000ED91FC910190F081E02DC6011995080F52
:1028E000191FF1CFC801DF91CF911F910F91FF9078
:1028F000EF90DF90CF9008952F923F924F925F928A
:102900006F927F928F929F92AF92BF92CF92DF92FF
:10291000EF92FF920F931F93CF93DF9300D000D0DD
:102920001F921F92CDB7DEB77C016C0124E0C20E6E
:10293000D11CFC01E057FF4F0190F081E02DC60152
:1029400019958C018E3F9F4F08F061C0370184E9D3
:10295000680E711CF3010190F081E02DFD83EC8382
:102960005701F2E9AF0EB11CF5018080918097010B
:1029700020593F4F3B832A83F9018081813009F43C
:1029800070C008F45FC0823009F476C0833009F467
:1029900082C0F701EC59FF4F9182808232962C81E0
:1029A0003D813183208338978081918147969D8333
:1029B0008C830F3F110511F008F020C1B696013647
:1029C000110530F40134110558F0F701EE57FF4FAF
:1029D000808191812C813D81280F391F3D832C837B
:1029E0008C819D810196FC01249121115FC090E0B2
:1029F00080E0EA81FB812081213009F4C1C108F423
:102A0000B7C1223009F4BEC1233009F4C3C181E04B
:102A100090E028960FB6F894DEBF0FBECDBFDF91D1
:102A2000CF911F910F91FF90EF90DF90CF90BF90CB
:102A3000AF909F908F907F906F905F904F903F905E
:102A40002F900895F701E05AFF4F0190F081E02D9B
:102A5000C60119952C813D81280F391F3D832C8398
:102A600098CFF701E05AFF4F0190F081E02DC601A9
:102A70001995881A990A8DCFF701E05AFF4F0190F6
:102A8000F081E02DC6011995EC81FD81E81BF90B61
:102A9000FD83EC837ECFF701E05AFF4F0190F08178
:102AA000E02DC6011995880E991E73CFEC81FD812A
:102AB00024912017110609F09AC0CF0102960097C1
:102AC00009F495CFF701EE59FF4FF887EF83918313
:102AD00080831286739660818F8198850E94521040
:102AE000EF81F8858087F701EA58FF4F60818F8179
:102AF00098850E945210582EEF81F88581879701A2
:102B000022573F4F3D832C83F9019081EF81F88557
:102B1000948781E0911180E0EF81F8858587F70146
:102B2000E958FF4F8080682D8F8198850E94521050
:102B3000382EF701E858FF4F2080622D8F8198854D
:102B40000E945210982EF701E758FF4F1081612F15
:102B50008F8198850E9452109FEF910F01E010E045
:102B6000980101C0220F9A95EAF7821B8E83EF81AC
:102B7000F885408414140CF0C4C08A94C80101C0C4
:102B8000880F8A94EAF7381AF685F983950C2A9407
:102B9000C80101C0880F2A94EAF7282E29182F2F80
:102BA000422D632DEF81F885828193810E94C00FB1
:102BB0004C01EF81F885938382832981422D632D17
:102BC000848195810E94D90FEF81F8859583848354
:102BD000F981F13009F49AC008F44EC0F23009F4DA
:102BE000A4C0F33009F4B5C0BC0194014FC0FC018E
:102BF00084912C813D81280F311DF0CEF701EA57D9
:102C0000FF4F80819181EC81FD81E80FF91FFD83E9
:102C1000EC834F0160E0C4010E947D102C813D8156
:102C2000280F391F3D832C8362E0C4010E947D1070
:102C300034E0830E911C8017910760F3EC81FD81D5
:102C4000849190E0982F88273196E4918E2B0097FD
:102C500009F4CDCE0817190721F48C819D810396C4
:102C60002ECFEC81FD813296E4912C813D812E0F97
:102C7000311D3D832C83E2CF9401240D311D47FC8F
:102C80003A95BC01650D711D57FC7A958B01AC011D
:102C9000B401C6010E94F60D882399F1EF81F885F1
:102CA000168217824701F3E78F0E911C24E7E20E8C
:102CB000F11CF40160818F8198850E945210082FC9
:102CC000F70160818F8198850E945210182F40E093
:102CD000602FC6010E94F20F41E0612FC6010E94E1
:102CE000F20F61E08F8198850E9452108111EFCF21
:102CF000EF81F88587818515E4F28485EC81FD817B
:102D00008083FE818F2FFF0F990B73CE0519110958
:102D100057FC139594012F5F3F4FBC01640D711D4B
:102D200047FC7A95800E911EB1CFA8014419510934
:102D300047FC539594012F5F3F4F0519110957FC2C
:102D40001395BC016F5F7F4F800F911F840E951EFE
:102D50009DCF9401250D311D57FC3A950419110999
:102D600047FC1395BC016F5F7F4F800F911F8ECF83
:102D7000F50120813181820F931F9183808347CE9B
:102D8000F301F7CFF50120813181281B390B318305
:102D900020833DCEF301F7CF089590E080E00895C1
:102DA0008F929F92AF92BF920F931F93CF93DF9317
:102DB000CDB7DEB7A1970FB6F894DEBF0FBECDBF7B
:102DC00019A2423008F44AE08E010F5D1F4F842E95
:102DD000912CB12CA12CA50194010E94FB1FE62F80
:102DE000B901CA01EA3044F5E05DD801EE938D01E6
:102DF000232B242B252B79F790E080E0109769F0A6
:102E0000FD0101900020E9F73197AF014A1B5B0BF0
:102E1000BD0183E19AE00E945414A1960FB6F89484
:102E2000DEBF0FBECDBFDF91CF911F910F91BF903D
:102E3000AF909F908F900895E95CD7CFFC010190EF
:102E40000020E9F73197AF01481B590BBC0183E122
:102E50009AE00C94541485ED8093BC008091ED04AD
:102E60009091EE04A091EF04B091F0040796A11D9B
:102E7000B11D23E0B695A795979587952A95D1F72B
:102E80002091BC0024FD03C010923A0508954091A2
:102E9000ED045091EE046091EF047091F004452B25
:102EA000462B472B69F30097A105B10541F02AE2B3
:102EB0002A95F1F700C00197A109B109E1CF8091EE
:102EC000EC040C94050BFC01A081B18150962C916F
:102ED00082AD38E0839FC0011124289FA001299F63
:102EE000500D112470E060E080AD91AD0C94CB21C9
:102EF0000F931F93CF938C01C62F87E19AE00E9416
:102F000063178CEE99E00E9489101092A60A109225
:102F1000A50A6C2F70E0665F7F4F7093A80A6093DC
:102F2000A70AC8010E941E17CF911F910F910C9400
:102F30009C116F927F928F929F92AF92BF92CF928D
:102F4000DF92EF92FF920F931F93CF93DF935091F5
:102F5000000220910502250F2093050240910302F3
:102F600030910402340F309304026FEF620F6E371A
:102F700018F0519550930002311104C041954093CF
:102F800003020FC0393368F030E0609101027091A4
:102F90000202261737072CF0685E7F4F621773070F
:102FA0006CF7EC016C0180E5C80ED11C01E08AE0F1
:102FB000882E912CA12CB12C90E4692E20E3722E46
:102FC00011E08C81882309F4F6C08091050290E01D
:102FD000E8802E2D30E0AC014D5F5F4F4217530764
:102FE0000CF4E6C04A81240F311D281739070CF470
:102FF000DFC08091040290E0F9802F2D30E0AC0119
:103000004D5F5F4F421753070CF4D2C04B81240F22
:10301000311D281739070CF4CBC01C820E94711F88
:10302000A50194010E94C91F672B682B692B59F4D5
:103030001093A404E092A004F092A10483E0809392
:10304000A2041093A304F09003028F2D8195809326
:103050000302E0910602EA3008F02BC1E150E930AA
:1030600008F094C0F0E08827E75CF74E8F4F0C948F
:10307000C3215B1942185C186E1880188E18A418AA
:103080004D19531961E082E00E94CA0861E083E0B3
:103090000E94CA0860E084E00E94CA0861E085E0FE
:1030A0000E94CA0861E086E00E94CA0860E087E0EA
:1030B0000E94CA0861E061C061E082E00E94CA0823
:1030C00061E083E00E94CA0861E084E00E94CA08CF
:1030D00061E085E00E94CA0860E0E5CF60E082E040
:1030E0000E94CA0861E083E00E94CA0861E084E0AF
:1030F0000E94CA0860E085E00E94CA0860E01FC024
:1031000061E082E00E94CA0860E083E00E94CA0891
:1031100061E084E00E94CA0861E0EDCF61E082E0F6
:103120000E94CA0860E083E00E94CA0861E084E06F
:103130000E94CA0861E085E00E94CA0861E086E05A
:103140000E94CA0861E0B3CF61E082E00E94CA0831
:1031500061E083E00E94CA0861E084E00E94CA083E
:1031600060E085E00E94CA0860E086E00E94CA082C
:1031700060E087E00E94CA0860E088E00E94CA0818
:1031800068EE73E080E090E00E94590980910602A9
:103190008F5F80930602809108028F5F8093080200
:1031A000809107028F5F813109F488C08093070204
:1031B0008C81811100E02596CC15DD0509F001CF49
:1031C000002309F440C0809107028823E1F1809137
:1031D00099038F5F8093990380E48093050280E3D5
:1031E0008093040260910302C62FC1956091000292
:1031F00070E090E080E00E94CA206B017C012DEC21
:103200003CEC4CE45EE30E945621A70196010E942B
:103210002D200E949920609300026C2F70E090E0B6
:1032200080E00E94CA206B017C012DEC3CEC4CE458
:103230005EE30E945621A70196010E942D200E9464
:10324000992060930302809104028F33B8F080913B
:103250009A03815080939A03823009F045C060E060
:103260008DE00E94CA0880E48093050280E3809389
:10327000040280910302819580930302DF91CF9134
:103280001F910F91FF90EF90DF90CF90BF90AF9084
:103290009F908F907F906F90089561E082E00E94F0
:1032A000CA0861E040CF61E082E00E94CA0861E0A4
:1032B0002CCF109306020E94101468CF10920702C0
:1032C0000E94321468EB7BE080E090E00E94590994
:1032D000809199038F5F80939903609205027092A9
:1032E0000402F092030264CF813019F460E08CE0B4
:1032F000B8CF8111C3CF60E08BE00E94CA0888EC90
:103300008093050280930402B9CF1F920F920FB6EB
:103310000F9211242F933F938F939F93AF93BF935B
:103320008091620590916305A0916405B091650557
:103330003091610523E0230F2D3758F50196A11D2B
:10334000B11D209361058093620590936305A0935E
:103350006405B09365058091660590916705A0911D
:103360006805B09169050196A11DB11D80936605A0
:1033700090936705A0936805B0936905BF91AF91DD
:103380009F918F913F912F910F900FBE0F901F90A3
:10339000189526E8230F0296A11DB11DD2CF1F92CA
:1033A0000F920FB60F9211240BB60F922F933F93EB
:1033B0004F935F936F937F938F939F93AF93BF933D
:1033C000EF93FF938AE695E00E94000AFF91EF9148
:1033D000BF91AF919F918F917F916F915F914F912D
:1033E0003F912F910F900BBE0F900FBE0F901F902B
:1033F00018951F920F920FB60F9211240BB60F92D1
:103400002F938F939F93EF93FF93E0917A05F09121
:103410007B058081E0918005F091810582FD1DC0D2
:103420009081809183058F5F8F732091840582172F
:1034300041F0E0918305F0E0E659FA4F958F8093D3
:103440008305FF91EF919F918F912F910F900BBE6C
:103450000F900FBE0F901F9018958081F2CF1F9292
:103460000F920FB60F9211240BB60F922F933F932A
:103470004F935F936F937F938F939F93AF93BF937C
:10348000EF93FF938091B900887F803609F44DC097
:1034900008F040C0883209F4A9C028F5803109F449
:1034A0009DC0C8F4882309F4FBC0883009F496C095
:1034B000FF91EF91BF91AF919F918F917F916F910C
:1034C0005F914F913F912F910F900BBE0F900FBEC8
:1034D0000F901F901895883109F488C0803241F709
:1034E0008093390514C0803409F49DC040F48033C2
:1034F000B9F38833E9F68093390585ECB0C080359F
:1035000009F485C0883509F496C0883489F60E948C
:103510002B17CECF883909F48CC038F5883729F0BD
:1035200050F4883611F0803719F683E080933A051D
:103530001092380557C0883809F47BC0803919F0DB
:10354000803809F0B5CF80913805803208F071C01D
:10355000E091380581E08E0F809338058091BB00A3
:10356000F0E0E85EFA4F80833DC0803B39F0E0F444
:10357000803A09F479C0883A09F09ACF84E08093C0
:103580003A051092150510921405E0911205F0917C
:10359000130519958091140581110FC081E0809366
:1035A00014051092F20409C0803C09F4A6CF883CAF
:1035B00009F4A3CF883B09F07BCFE091150581E0AA
:1035C0008E0F80931505F0E0EE50FB4F80818093C5
:1035D000BB00909115058091140529C080915F056D
:1035E0008093BB0085EC8093BC0062CF90915E0518
:1035F00080915D05981758F5E0915E0581E08E0F8A
:1036000080935E05F0E0E35CFA4F8081E9CFE091C2
:103610005E0581E08E0F80935E058091BB00F0E037
:10362000E35CFA4F808390915E0580915D05981769
:10363000C8F285E8D8CFE0915E0581E08E0F8093D7
:103640005E058091BB00F0E0E35CFA4F80838091DF
:103650003C0581115CCF81E080933B0584EA809337
:10366000BC0010923A0524CF85EC8093BC001092E8
:103670003A0580913805803230F4E0913805F0E069
:10368000E85EFA4F10826091380570E0E09116050F
:10369000F091170588E195E019951092380508CF4B
:1036A0001092390534CFCF9310926D0510926C05AE
:1036B00088EE93E0A0E0B0E080936E0590936F05F4
:1036C000A0937005B093710528E034E030936B054A
:1036D00020936A0525EC30E030937705209376053A
:1036E00024EC30E0309379052093780520EC30E02D
:1036F00030937B0520937A0521EC30E030937D05F3
:1037000020937C0522EC30E030937F0520937E05EA
:1037100026EC30E0309381052093800510928305DC
:1037200010928405109285051092860510920A0663
:103730001092090680930B0690930C06A0930D0639
:10374000B0930E068AE194E09093080680930706F2
:103750001092160A1092150A8FE997E09093A40A26
:103760008093A30A1092A60A1092A50A1092A80AA2
:103770001092A70A10922F0A8CE294E09093140AF8
:103780008093130A1092180A1092170A10922C0AAA
:103790001092230A1092240A1092250A1092260AE7
:1037A0008FEF80932D0A8093310AE5E3FAE08BE4F2
:1037B0009AE0CFEFC1938E179F07E1F785E39CE076
:1037C00090931C0A80931B0A8AE29DE090931E0A44
:1037D00080931D0A84EA91E19093200A80931F0A46
:1037E00085EE92E19093220A8093210A30E020E056
:1037F00040E069E087E19AE00E94350C1092720A7D
:103800001092710A89EA97E090934C0A80934B0AD0
:1038100083E196E09093500A80934F0A88E080936A
:10382000510A1092520A1092800A1092A00A109225
:103830009C0A81E08093A10A8093A20A84E394E029
:1038400090934E0A80934D0A87E19AE00E94A40D5E
:1038500010926A0A1092690A10926E0A10926D0A0A
:103860008FEF9FEF90936C0A80936B0A9093700A8E
:1038700080936F0AE0914D0AF0914E0A0280F38125
:10388000E02D87E19AE0199588E198E09093740A19
:103890008093730A1092830AC093400AC093410A2E
:1038A000C093420ACF910895789484B5826084BD14
:1038B00084B5816084BD85B5826085BD85B5816034
:1038C00085BD80916E00816080936E0010928100B2
:1038D000809181008260809381008091810081606D
:1038E000809381008091800081608093800080912E
:1038F000B10084608093B1008091B00081608093BA
:10390000B00080919100826080939100809191003D
:1039100081608093910080919000816080939000FD
:103920008091A10082608093A1008091A1008160BC
:103930008093A1008091A00081608093A00080917D
:103940002101826080932101809121018160809317
:1039500021018091200181608093200180917A0073
:10396000846080937A0080917A00826080937A00EC
:1039700080917A00816080937A0080917A008068DB
:1039800080937A001092C100E0911B0AF0911C0A0A
:1039900030E020E040E06AE087E19AE0199580910C
:1039A000A20A882321F087E19AE00E94631780E051
:1039B0000E941B0887E19AE00E944011C091520AC0
:1039C0008091510AC80FE091170AF091180A818975
:1039D000C81708F4B0C187E19AE00E94B50B80E0F7
:1039E0000E941B08E0911B0AF0911C0A30E020E0C5
:1039F00040E06BE087E19AE01995E0917A05F0915B
:103A00007B0582E08083E0917605F0917705108256
:103A1000E0917805F09179058FEC80831092820512
:103A2000E0917E05F0917F0586E08083E0917C0542
:103A3000F0917D05808180618083E0917C05F0912B
:103A40007D05808188608083E0917C05F0917D0513
:103A5000808180688083E0917C05F0917D05808184
:103A60008F7D808364EF71E080E090E00E945909CF
:103A700060E086E30E94F80861E082E00E94F808B6
:103A800061E083E00E94F80861E084E00E94F808A9
:103A900061E085E00E94F80861E086E00E94F80895
:103AA00061E087E00E94F80861E088E00E94F80881
:103AB00061E08BE00E94F80861E08CE00E94F80869
:103AC00061E08DE00E94F80862E087E10E94F8085A
:103AD00062E088E10E94F80862E086E10E94F8084E
:103AE00061E08BE00E94CA0861E08CE00E94CA0895
:103AF00061E08DE00E94CA080E9432140E94DA132D
:103B00000AE010E084E1882E912C98E2E92EF12C55
:103B1000C1E02EE1C22ED12C33E0632E49E9A42E60
:103B200043E0B42E50E4752ED0E387E19AE00E9482
:103B3000631784EC91E00E9489101093A60A009309
:103B4000A50A9092A80A8092A70A8AE394E00E94AC
:103B50001E171093A60A0093A50AF092A80AE092F5
:103B6000A70A80E494E00E941E17809160058823D4
:103B700009F4EBC088E290E01092A60A1092A50A20
:103B80009093A80A8093A70A85E494E00E941E17E8
:103B90000E949C1187E10E94A108892B69F481E0B1
:103BA00090916005911180E08093600568EC70E071
:103BB00080E090E00E94590988E10E94A108892BC9
:103BC00069F481E090916005911180E08093600537
:103BD00068EC70E080E090E00E94590986E10E9464
:103BE000A108892B09F0A4C080916005811111C141
:103BF00080919A03882309F49BC0809199038130B6
:103C000009F0A6C087E19AE00E9463170E94501352
:103C10000E94DA130E94E61389E493E00E94F213F3
:103C200089E493E00E9499170E947B130E94C913B4
:103C30000E949C1180919A038111DACF6EE187E492
:103C400094E00E94781760ED77E080E090E00E94B9
:103C5000590987E19AE00E9463178CEE99E00E946F
:103C600089101092A60A1092A50AD092A80AC092B2
:103C7000A70A609108026150770B6F3F760709F041
:103C8000C2C06DE283E19AE00E947C144AE061E0E8
:103C900070E080E090E00E94D0160E949C1168EBDA
:103CA0007BE080E090E00E94590961E08BE00E9497
:103CB000CA0861E08CE00E94CA0861E08DE00E94C1
:103CC000CA08C0930802C093070260929A03C09387
:103CD0000602C09399030E943214E9E4F3E049EF2D
:103CE00052E029EA32E089E592E069E072E0C483BB
:103CF000DA011496CC93D9011496CC93DC01149676
:103D0000CC93DB011496CC9335964B5F5F4F2B5FC2
:103D10003F4F05966B5F7F4FAE16BF0641F770921F
:103D20000502D093040280910302819580930302DF
:103D30000E948F0AFACE8091A20A882321F087E19F
:103D40009AE00E9463178C2F33CE84E190E014CF69
:103D5000823089F487E19AE00E9463170E94501331
:103D60000E94DA130E94E61389EF92E00E94F21398
:103D700089EF92E057CF8330B9F487E19AE00E944F
:103D800063170E9450130E94DA130E94E61389EA17
:103D900092E00E9499170E947B130E94C91389EA3E
:103DA00092E00E94F21344CF8430A9F487E19AE0B4
:103DB0000E9463170E9450130E94DA130E94E613B8
:103DC00089E592E00E9499170E947B130E94C91313
:103DD00089E592E0E6CF853009F02CCF87E19AE0C3
:103DE0000E9463170E9450130E94DA130E94E61388
:103DF00089E092E00E9499170E947B130E94C913E8
:103E000089E092E0CECF072E000C880B990B4AE098
:103E100042CF65E081E594E00E94781760ED77E09D
:103E200080E090E00E9459096EE184E694E00E94EF
:103E3000781760ED77E080E090E00E94590968E231
:103E400089E794E00E947817FFCF8F929F92AF92FC
:103E5000BF92CF92DF92EF92FF92CF93DF93EC016C
:103E6000688179818A819B81611571058105910540
:103E700021F464E279ED8BE597E02DE133EF41E049
:103E800050E00E94C91F49015A019B01AC01A7EAF9
:103E9000B1E40E94E81F6B017C01ACEEB4EFA50118
:103EA00094010E94F61FC60ED71EE81EF91EF7FEEB
:103EB00006C081E0C81AD108E10880E8F80AC88283
:103EC000D982EA82FB82C701B6019F77DF91CF9149
:103ED000FF90EF90DF90CF90BF90AF909F908F902A
:103EE00008958F929F92AF92BF92CF92DF92EF92FE
:103EF000FF9260919B0370919C0380919D03909130
:103F00009E03611571058105910521F464E279ED47
:103F10008BE597E02DE133EF41E050E00E94C91FAF
:103F200049015A019B01AC01A7EAB1E40E94E81FD4
:103F30006B017C01ACEEB4EFA50194010E94F61F69
:103F4000C60ED71EE81EF91EF7FE06C081E0C81A8D
:103F5000D108E10880E8F80AC0929B03D0929C0344
:103F6000E0929D03F0929E03C701B6019F77FF90F8
:103F7000EF90DF90CF90BF90AF909F908F9008957B
:103F800060939B0370939C0380939D0390939E0387
:103F90000895052E97FB1EF400940E94E01F57FD24
:103FA00007D00E94FB1F07FC03D04EF40C94E01FC7
:103FB00050954095309521953F4F4F4F5F4F089555
:103FC00090958095709561957F4F8F4F9F4F089585
:103FD0000E941D20A59F900DB49F900DA49F800D61
:103FE000911D11240895B7FF0C94E81F0E94E81F4B
:103FF000821B930B0895A1E21A2EAA1BBB1BFD0185
:104000000DC0AA1FBB1FEE1FFF1FA217B307E407B7
:10401000F50720F0A21BB30BE40BF50B661F771F0F
:10402000881F991F1A9469F76095709580959095EF
:104030009B01AC01BD01CF010895A29FB001B39FC8
:10404000C001A39F700D811D1124911DB29F700DA1
:10405000811D1124911D08955058BB27AA270E9445
:1040600044200C941C210E940E2138F00E9415213E
:1040700020F039F49F3F19F426F40C940B210EF430
:10408000E095E7FB0C940521E92F0E942D2158F3C0
:10409000BA17620773078407950720F079F4A6F52D
:1040A0000C944F210EF4E0950B2EBA2FA02D0B018E
:1040B000B90190010C01CA01A0011124FF27591B6D
:1040C00099F0593F50F4503E68F11A16F040A22F73
:1040D000232F342F4427585FF3CF469537952795E4
:1040E000A795F0405395C9F77EF41F16BA0B620BE3
:1040F000730B840BBAF09150A1F0FF0FBB1F661F2A
:10410000771F881FC2F70EC0BA0F621F731F841F6C
:1041100048F4879577956795B795F7959E3F08F092
:10412000B0CF9395880F08F09927EE0F9795879554
:1041300008950E94352188F09F5798F0B92F99274C
:10414000B751B0F0E1F0660F771F881F991F1AF082
:10415000BA95C9F714C0B13091F00E944F21B1E077
:1041600008950C944F21672F782F8827B85F39F076
:10417000B93FCCF3869577956795B395D9F73EF41B
:1041800090958095709561957F4F8F4F9F4F0895C3
:10419000E89409C097FB3EF49095809570956195E1
:1041A0007F4F8F4F9F4F9923A9F0F92F96E9BB2797
:1041B0009395F695879577956795B795F111F8CF13
:1041C000FAF4BB0F11F460FF1BC06F5F7F4F8F4F7E
:1041D0009F4F16C0882311F096E911C0772321F074
:1041E0009EE8872F762F05C0662371F096E8862F0C
:1041F00070E060E02AF09A95660F771F881FDAF763
:10420000880F9695879597F9089597F99F6780E8A5
:1042100070E060E008959FEF80EC089500240A9418
:104220001616170618060906089500240A94121691
:104230001306140605060895092E0394000C11F4C4
:10424000882352F0BB0F40F4BF2B11F460FF04C071
:104250006F5F7F4F8F4F9F4F089557FD9058440FCA
:10426000551F59F05F3F71F04795880F97FB991FD5
:1042700061F09F3F79F08795089512161306140692
:10428000551FF2CF4695F1DF08C01616170618061F
:10429000991FF1CF86957105610508940895E894FA
:1042A000BB2766277727CB0197F908950E946921DC
:1042B0000C941C210E940E2138F00E94152120F040
:1042C000952311F00C9405210C940B2111240C94CE
:1042D00050210E942D2170F3959FC1F3950F50E05E
:1042E000551F629FF001729FBB27F00DB11D639FA8
:1042F000AA27F00DB11DAA1F649F6627B00DA11D4E
:10430000661F829F2227B00DA11D621F739FB00DF3
:10431000A11D621F839FA00D611D221F749F332763
:10432000A00D611D231F849F600D211D822F762FFC
:104330006A2F11249F5750409AF0F1F088234AF0D9
:10434000EE0FFF1FBB1F661F771F881F9150504045
:10435000A9F79E3F510580F00C9405210C94502143
:104360005F3FE4F3983ED4F3869577956795B795CC
:10437000F795E7959F5FC1F7FE2B880F911D9695E6
:10438000879597F90895EE0FFF1F881F8BBF079041
:10439000F691E02D1994DC0101C06D93415050401D
:0843A000E0F70895F894FFCF47
:1043A800024000FE30400101011D021003012F02EE
:1043B800100301410210030153021003010B0710FF
:1043C800030165071003011D161003012F161003C2
:1043D80001411610030153161003010B0C100301C1
:1043E8002F0C100301410C100301650C1003010B85
:1043F8001110030165111003011411100301261196
:104408001003014A111003015C111003010202108C
:10441800030138021003016E021003011407100390
:104428000126071003014A071003015C0710030166
:10443800020C100301380C1003016E0C100301026A
:10444800161003016E161003010202100301140274
:10445800100301260210030138021003014A02105A
:1044680003015C021003016E02100301260C100305
:1044780001380C1003014A0C100301381110030114
:104488001407100301260710030138071003014A17
:10449800071003015C07100301140410020126042D
:1044A80010020138041002014A041002015C0410D1
:1044B80002011408100201140C1002011410100259
:1044C800015C081002015C0C1002015C1010020172
:1044D8001414100201261410020138141002014AA3
:1044E800141002015C1410020138021002011406B3
:1044F800100201260610020138061002014A0610B1
:1045080002015C06100201020A100201140A1002DC
:1045180001260A100201380A1002014A0A10020193
:104528005C0A1002016E0A100201380E10020138EE
:1045380012100201381610020101030100000018D0
:1045480015A015C019FF1815A115C819FF1815AE23
:1045580019FF1815AF19FF1815AE15D5168015A82F
:10456800163F15D316001540158D16141520160084
:1045780015A115C815DA1612158116CF15D916F119
:1045880015DB1640152E15A415A619FF0001140AEF
:104598006464323200127A00000428961008000081
:1045A8008000400000000000220A8C09B9096F0A47
:1045B800EA09C809DC09000000007F0B520BCD1680
:1045C800280B4B0B380B290B000000007C145414EB
:1045D800CD16CC16A40D2F0E940D53746172740071
:1045E80045786974003E0047616D65204F766572B5
:1045F800005468616E6B20796F7520666F72207940
:104608006F757200696E74657265737420696E20C7
:0C4618006F75722067616D650042420002
:00000001FF
