:020000040000FA
:100000000C9462000C948A000C948A000C948A0070
:100010000C948A000C948A000C948A000C948A0038
:100020000C948A000C948A000C948A000C948A0028
:100030000C948A000C948A000C948A000C948A0018
:100040000C94A30F0C948A000C9413100C94ED0FD5
:100050000C948A000C948A000C948A000C948A00F8
:100060000C9445100C948A00000000002300260028
:10007000290000000000240027002A0000000000E2
:10008000250028002B0004040404040404040202D4
:100090000202020203030303030301020408102007
:1000A0004080010204081020010204081020000012
:1000B0000008000201000003040700000000000027
:1000C0000000641111241FBECFEFD8E0DEBFCDBF0A
:1000D00012E0A0E0B1E0EEEBF8E202C005900D9274
:1000E000A436B107D9F728E0A4E6B2E001C01D921A
:1000F000AB38B207E1F710E0C2E6D0E004C02197C8
:10010000FE010E944914C136D107C9F70E94651249
:100110000C945D140C940000662329F06A3019F0E9
:10012000862F90E008958FEF9FEF0895AF92BF92D2
:10013000CF92DF92EF92FF920F93CF93DF93EC0178
:10014000DA017901942F9770E1E0F0E09F01092E28
:1001500001C0220F0A94EAF7522F6E018AE8C80EF6
:10016000D11CF601808140E0823018F4422F8130AA
:1001700049F15D01F8EFAF22E8ADF9AD2881398191
:10018000D90150968C918A9D90018B9D300D112440
:10019000620F731FDF01A60FB71F01111AC0EA0E0D
:1001A000FB1E8C91842B85278D93AE15BF05C9F757
:1001B000DF91CF910F91FF90EF90DF90CF90BF90A4
:1001C000AF90089550E0D5CF440F550FE114F104DE
:1001D00079F33C91342B35273C939F5F9770E1E096
:1001E000EE1AF1089111F0CF2CAD3DADA20FB31F67
:1001F000F6018081823028F4813009F051E041E03D
:10020000E5CF51E0E3CF80E0089590E080E00895ED
:10021000CF93DF93C5EFD7E08FAFEAADFBAD019091
:10022000F081E02D89EF97E00995EAADFBAD028002
:10023000F381E02D89EF97E0DF91CF9109949B0145
:10024000DC011896ED91FC9141E067E1099483305F
:1002500081F028F4813099F08230A9F00895873038
:10026000A9F08830C9F08430B1F4809180008F7D8E
:1002700003C0809180008F7780938000089584B5BB
:100280008F7784BD089584B58F7DFBCF8091B000BA
:100290008F778093B00008958091B0008F7DF9CF63
:1002A0001F93CF93DF93282F30E0F901E255FF4FE2
:1002B0008491F901E656FF4FD491F901EA57FF4FB7
:1002C000C491CC23A9F0162F81110E942701EC2F95
:1002D000F0E0EE0FFF1FE458FF4FA591B4918FB7E8
:1002E000F894EC91111108C0D095DE23DC938FBFF8
:1002F000DF91CF911F910895DE2BF8CFCF93DF933D
:1003000090E0FC01E656FF4F24918A579F4FFC0175
:1003100084918823D1F090E0880F991FFC01EE585A
:10032000FF4FA591B491FC01E458FF4FC591D491C2
:10033000623071F49FB7F8943C91822F80958323AB
:100340008C93E8812E2B28839FBFDF91CF91089556
:100350008FB7F894EC912E2B2C938FBFF6CF3FB72D
:10036000F8948091480390914903A0914A03B09179
:100370004B0326B5A89B05C02F3F19F00196A11D80
:10038000B11D3FBFBA2FA92F982F8827BC01CD01DF
:10039000620F711D811D911D42E0660F771F881F3E
:1003A000991F4A95D1F708958F929F92AF92BF926D
:1003B000CF92DF92EF92FF926B017C010E94AF011E
:1003C0004B015C01C114D104E104F104B9F00E94B5
:1003D000AF01681979098A099B09683E7340810554
:1003E000910580F321E0C21AD108E108F10888EEF6
:1003F000880E83E0981EA11CB11CE4CFFF90EF9003
:10040000DF90CF90BF90AF909F908F900895AF9264
:10041000BF92CF92DF92EF92FF920F931F93CF93F1
:10042000DF936C017B018B01040F151FEB015E0153
:10043000AE18BF08C017D10759F06991D601ED91E8
:10044000FC910190F081E02DC6010995892B79F787
:10045000C501DF91CF911F910F91FF90EF90DF9039
:10046000CF90BF90AF900895FC01538D448D252F00
:1004700030E0842F90E0821B930B541710F0CF963E
:10048000089501970895FC01918D828D981761F070
:10049000A28DAE0FBF2FB11D5D968C91928D9F5F87
:1004A0009F73928F90E008958FEF9FEF0895FC0166
:1004B000918D828D981731F0828DE80FF11D858D19
:1004C00090E008958FEF9FEF0895FC01918D228DAC
:1004D000892F90E0805C9F4F821B91098F73992731
:1004E00008958CE493E00E94650221E0892B09F4D1
:1004F00020E0822F089580E090E0892B29F00E946F
:10050000710281110C9400000895FC01A48DA80FC4
:10051000B92FB11DA35ABF4F2C91848D90E0019645
:100520008F739927848FA689B7892C93A089B18965
:100530008C91837080648C93938D848D981306C006
:100540000288F389E02D80818F7D80830895EF926A
:10055000FF920F931F93CF93DF93EC0181E0888F7D
:100560009B8D8C8D98131AC0E889F989808185FF4D
:1005700015C09FB7F894EE89FF896083E889F989EF
:1005800080818370806480839FBF81E090E0DF91F1
:10059000CF911F910F91FF90EF900895F62E0B8D44
:1005A00010E00F5F1F4F0F731127E02E8C8D8E11FF
:1005B0000CC00FB607FCFACFE889F989808185FF66
:1005C000F5CFCE010E948502F1CFEB8DEC0FFD2F10
:1005D000F11DE35AFF4FF0829FB7F8940B8FEA8921
:1005E000FB8980818062CFCFCF93DF93EC01888D30
:1005F0008823B9F0AA89BB89E889F9898C9185FD9E
:1006000003C0808186FD0DC00FB607FCF7CF8C912B
:1006100085FFF2CF808185FFEDCFCE010E9485025C
:10062000E9CFDF91CF9108952091F702260F33276C
:10063000331F21323105ECF420911D03FC0190E0C1
:1006400080E0243069F082E00895A091F7022191C2
:10065000AC014B525D4FA40FB52FB11D2C930196E9
:10066000861798F38091F702680F6093F70280E095
:10067000089581E0089510921D0381E080931F0387
:1006800010921E0361E082E10E94500161E083E16B
:100690000E945001E9EBF0E080818E7F80838081B1
:1006A0008D7F808388E48093B80085E48093BC00CC
:1006B0000895CF93DF9391E09093D4028823B9F00B
:1006C000C091B800D091BA008091BC008A7B809321
:1006D000BC0060E082E10E94500160E083E10E9482
:1006E00050010E943B03D093BA00C093B800DF9141
:1006F000CF910895089508950895E091CC028091D6
:10070000CB02E81730F4F0E0E555FD4F808190E032
:1007100008958FEF9FEF08959091CC028091CB02C6
:100720002FEF3FEF981748F4E92FF0E0E555FD4F24
:10073000208130E09F5F9093CC02C90108958091A1
:10074000CB029091CC02891B990B0895CF92DF9236
:10075000EF92FF920F931F93CF93DF937C01CB0116
:100760008A012091AA02222389F0EB016B01C40EB9
:10077000D51ECC15DD0569F06991D701ED91FC918D
:100780000190F081E02DC7010995F3CF642F0E94FD
:100790001403C801DF91CF911F910F91FF90EF904B
:1007A000DF90CF900895CF93DF931F92CDB7DEB740
:1007B00069832091AA022223F9F02091CD022032F0
:1007C00058F021E030E0FC013383228390E080E0A8
:1007D0000F90DF91CF9108958091CE02E82FF0E045
:1007E000E657FD4F998190838F5F8093CE0280936F
:1007F000CD0281E090E0ECCF61E0CE0101960E9455
:100800001403F7CFDC011A96ED91FC9130E020E063
:100810000994DC011496ED91FC9130E020E040E079
:1008200060E10994DC011696ED91FC9130E020E046
:1008300040E069E10994DC011696ED91FC9130E00D
:1008400020E040E068E109949A01DC011696ED9100
:10085000FC91462F67E10994EF92FF920F931F934B
:10086000CF93DF931F92CDB7DEB77C018B01D80108
:100870006C91673129F150F46531A0F40F90DF914C
:10088000CF911F910F91FF90EF9008956A3118F169
:100890006E3FA1F7F8014181498369E2C7010E94D7
:1008A00002040BC0F80141814983D7011696ED91EE
:1008B000FC9130E020E0C70109950E5F1F4FD7CFB4
:1008C000F80181818983AE014F5F5F4F61E0C7010D
:1008D0000E942404F2CF0F5F1F4FD7011696ED91AF
:1008E000FC9130E020E040E0C7010995C0CF462FE1
:1008F000DC011696ED91FC9130E020E066E1099470
:10090000462FDC011696ED91FC9130E020E065E188
:100910000994EF92FF920F931F93CF93DF93EC0113
:10092000042F79016D3009F446C050F46B30C9F1E1
:10093000693009F49FC06A3009F465C080E046C0A0
:100940006E3009F452C06F3099F70E941B04F70112
:100950001381110F110F110F6C89160F60E4CE0176
:100960000E948004612F62956F706061CE010E94C9
:100970008004612F6F70CE010E947704F7016481BB
:10098000606BCE010E947704F70140815181628142
:10099000660F660F660FCE010E9424040150A1F776
:1009A0002EC06CED71E0442311F067ED71E0CE01D3
:1009B0000E942C040AC0411110C060ED71E00E9439
:1009C0002C04E881F98182898C8B81E0DF91CF91C1
:1009D0001F910F91FF90EF90089569EC71E00E94D4
:1009E0002C04E881F9818389EFCF0E941B0461E820
:1009F000CE010E948004602FCE010E947704CE01B8
:100A00000E941204E2CFEA85FB8530E020E040E05E
:100A100068E2CE010995EE81FF8130E020E040E000
:100A200064E1CE01099541E06BE4CE010E9402042D
:100A3000E881F981448169E2CE010E94020440E02C
:100A40006BE4CE010E940204E881F981448169E2ED
:100A5000CE010E94020441E06BE4CE010E94020438
:100A6000E881F981458169E2CE010E94020461EECC
:100A700071E09DCF86E192E0998388831C8AA5CF9F
:100A8000DC011896ED91FC9130E020E040E069E156
:100A90000994DC011896ED91FC9130E020E040E0F3
:100AA00068E10994CF93DF931F92CDB7DEB76983D6
:100AB000BE016F5F7F4F0E941F010F90DF91CF91AA
:100AC0000895EF92FF921F93CF93DF93EC01162FBF
:100AD0007A010E94490560E4CE010E945205E88532
:100AE000F9859701412F67E1CE010995CE01DF918C
:100AF000CF911F91FF90EF900C944005EF92FF92E1
:100B00001F93CF93DF93EC01142F7901663181F1AC
:100B100038F4643109F44BC0653179F080E022C0CB
:100B20006831C9F150F16931C9F780918902882390
:100B300091F1CE010E9440052EC080918902882348
:100B400019F0CE010E944005CE010E94490560E0E7
:100B5000CE010E945205612FCE010E94520581E014
:100B600080938902DF91CF911F91FF90EF900895BC
:100B7000642F0E94520581E0F5CF8091890288237D
:100B800019F0CE010E944005A701193138F4612FF8
:100B9000CE010E94610510928902EDCF68E1CE017D
:100BA0000E946105185188E1E80EF11CEDCF8E8995
:100BB0008F3F11F488E78E8BE885F9859701412FE7
:100BC00064E1CE01DF91CF911F91FF90EF900994E6
:100BD0000F93FC01E05CFF4F0190F081E02D4E1B74
:100BE0005F0BDC01D496ED91FC9109950F9108956E
:100BF000CF93DF93FC01A081B18182AD90E09C0195
:100C000043E0220F331F4A95E1F737AF26AF5096E6
:100C10002C91509748E0249F9001112435AF24AFC8
:100C200023AD30E0B90153E0660F771F5A95E1F725
:100C3000EF01C05CDF4F7983688351964C915197E7
:100C4000E901C80FD91F50E04C175D0718F4CA011D
:100C5000821B930BEF01CE5BDF4F79836883229673
:100C600023E0880F991F2A95E1F7860F971F998334
:100C70008883229654968D919C9155979983888369
:100C8000E85BFF4F56968D919C9191838083DF9115
:100C9000CF9108950F931F93FC01E25BFF4F0190EA
:100CA000F081E02DDC01A05BBF4F0D90BC91A02D29
:100CB0004A175B0740F4E017F10748F004171507DF
:100CC00030F080E019C0E017F107C0F3FACFFC0163
:100CD000E65BFF4F40815181845B9F4FFC01808127
:100CE00091816817790758F481E04217530720F083
:100CF00081E02617370728F71F910F9108954217B3
:100D00005307B0F3DECF2F923F924F925F926F92D4
:100D10007F928F929F92AF92BF92CF92DF92EF928B
:100D2000FF920F931F93CF93DF93CDB7DEB72A9730
:100D30000FB6F894DEBF0FBECDBF9A878987865B5A
:100D40009F4F9A838983FC0111821082E985FA857D
:100D5000EA5BFF4F4080518029853A85245B3F4FF5
:100D60003C832B83F90151824082E985FA85EE5B51
:100D7000FF4F2080318029853A85225B3F4F3E839B
:100D80002D83F90131822082E985FA85EC5BFF4FE2
:100D90006080718029853A85205B3F4F38872F839B
:100DA000F90171826082E985FA85E85AFF4FE08097
:100DB000F180E985FA85EC5AFF4FA080B180E98582
:100DC000FA85EA5AFF4FC080D180E985FA85EE5A4C
:100DD000FF4F8080918087019501A601B40189852C
:100DE0009A850E944A0629853A852C573F4F3A87B3
:100DF000298781111BC0F90110822A960FB6F89439
:100E0000DEBF0FBECDBFDF91CF911F910F91FF903D
:100E1000EF90DF90CF90BF90AF909F908F907F909A
:100E20006F905F904F903F902F90089581E0E985FB
:100E3000FA8580838114910421F0E981FA819182FD
:100E40008082A414B50420F4EB81FC81B182A082DD
:100E50002C143D0420F4ED81FE81D182C082E61481
:100E6000F70458F6EF81F885F182E082C6CF0F9340
:100E7000CF93DF93E02FDC01AC57BF4FFC91FF23F2
:100E800009F460C02115310509F45CC02230310538
:100E900038F0023009F04AC06F5F7F4F621B730B5E
:100EA0000E2F0170E0FD52C0FC01E25BFF4F01908C
:100EB000F081E02D4E175F0708F444C0FC01E05BB1
:100EC000FF4F0190F081E02D4E175F07D8F5FC0130
:100ED000E45BFF4F0190F081E02DDC01A65BBF4F8A
:100EE0000D90BC91A02D260F371F2617370738F518
:100EF0006E177F0718F59F0121503109A217B3071C
:100F000008F56A177B0708F4BD012E173F0708F4A0
:100F1000F901E61BF70BEC01AEA9BFA914960D90E1
:100F2000BC91A02D9F01FD0109950CC0033009F073
:100F3000B7CF4F5F5F4F421B530BB2CFBD016E1750
:100F40007F07E0F2DF91CF910F910895FC01E65BFE
:100F5000FF4F0190F081E02D6E177F0798F3FC01A1
:100F6000E45BFF4F0190F081E02D6E177F0750F793
:100F7000FC01E05BFF4F0190F081E02DDC01A25B02
:100F8000BF4F0D90BC91A02D240F351F241735079E
:100F9000A8F44E175F0788F49F0121503109A2176A
:100FA000B30780F64A175B0708F4AD012E173F0719
:100FB00008F4F901E41BF50BAECFAD014E175F0746
:100FC00008F6EDCFAF92BF92CF92DF92EF92FF92F1
:100FD0000F931F93CF93DF936C01EB015A017B01B9
:100FE000E20EF31E9C01240F351F8701AB01BC01EB
:100FF00089EF97E00E944A06811114C0DF91CF91DA
:101000001F910F91FF90EF90DF90CF90BF90AF9026
:10101000089500E09501AE01B60189EF97E00E94C6
:1010200037072196EC16FD06A1F7E8CF213069F0CD
:1010300038F0223079F0840F911D47FD9A9508957C
:10104000860F911D67FD9A950895841B910947FDB0
:1010500093950895861B910967FD93950895213016
:1010600069F038F0223079F0861B910967FD93957D
:101070000895840F911D47FD9A950895860F911D3F
:1010800067FD9A950895841B910947FD93950895EE
:101090003F924F925F926F927F928F929F92AF9208
:1010A000BF92CF92DF92EF92FF920F931F93CF9355
:1010B000DF937C01162F442EEC01C25ADF4F5E8075
:1010C0006F806C018AE8C80ED11C78847518312EA7
:1010D000711608F4372C8C809D800E85202F462DAC
:1010E000652D8A819B810E9416085C01202F462D68
:1010F000652DC4010E942F08AC01442079F08C8535
:10110000F6018083232D30E0B501C7010E94370727
:10111000171548F017196394512CD7CF8B8581117F
:10112000F7CF8D85EDCF150D1E836F82DF91CF91A7
:101130001F910F91FF90EF90DF90CF90BF90AF90F5
:101140009F908F907F906F905F904F903F90089509
:10115000DC011A964C911A97ED91FC91119724910C
:1011600030E0042E02C0359527950A94E2F7842FCB
:10117000860F883068F031961196FC93EE93E491D7
:1011800098E0941B01C0EE0F9A95EAF72E2B885039
:101190001A968C938FEF9FEF01C0880F6A95EAF73C
:1011A000809582230895FC01E60FF11D849190E063
:1011B000982F88273196E4918E0F911D0895AF9254
:1011C000BF92CF92DF92EF92FF920F931F93CF9334
:1011D000DF9300D000D01F92CDB7DEB78C01DC01C9
:1011E000DA96AC90DA97DB96EC90DB97ED91FC9178
:1011F000B188FE2CD12CC12CD801ED91FC91119716
:101200008089D8962D913C911C82FD828B83B8E019
:101210008B9FC00111248C9DA0018D9D500D9C9D24
:10122000500D1124240F351F3A832983D8011496B9
:10123000ED91FC919E012F5F3F4F41E06FE0C801AF
:101240000995F3948F2D8E198A1528F4BFEFCB1AC8
:10125000DB0AFB1488F20F900F900F900F900F9005
:10126000DF91CF911F910F91FF90EF90DF90CF9082
:10127000BF90AF900895CF92DF92EF92FF920F93BD
:101280001F93CF93DF93EC01962F683109F44BC085
:10129000B901993130F49431C9F0973189F080E087
:1012A00006C0993109F461C09032C9F781E0DF913D
:1012B000CF911F910F91FF90EF90DF90CF90089505
:1012C00050E089EE93E00E94A603F0CF8C859D85C7
:1012D000AE85BF85892B8A2B8B2B71F4E881F98130
:1012E000A585B0E020EA36E841E050E00E940D1408
:1012F0006C877D878E879F871092CC021092CB02DD
:101300001092CE021092CD020E943B038AE793E036
:101310009093F6028093F5028BE793E09093FA02A4
:101320008093F902C3CF2C853D854E855F8560E0B3
:1013300074E284EF90E00E941814205131094109B1
:10134000510956954795379527952093B8008E8972
:1013500090E09595879591E09093AA0280938802FA
:101360001092CE021092CD02A1CFD091CD02D132F7
:1013700008F093C0C09188020E94AF016B017C010C
:1013800080911D03811164C082E080931D0381E080
:1013900080931F038FEF80931C0310924103D0931F
:1013A0004003AAE8B2E0E0E2F3E080E0D8137CC0BA
:1013B0001092420380914203CC0FC82BC09342038A
:1013C00080911E03813009F073C010921E030E94A9
:1013D000AF016B017C01809142038093BB0080913F
:1013E000D0029091D102A091D202B091D302892B68
:1013F0008A2B8B2B99F00E94AF010091D0021091A3
:10140000D1022091D2023091D3026C197D098E094C
:101410009F090617170728073907D8F18091BC00E4
:1014200083FDD9CF85EC8093BC000E94AF016B0196
:101430007C0180911D038230E9F180911C038F3F74
:1014400061F180911C03803241F180911C0325C021
:101450008091D0029091D102A091D202B091D3029A
:10146000892B8A2B8B2B09F48BCF0E94AF01009123
:10147000D0021091D1022091D2023091D3026C1986
:101480007D098E099F09061717072807390708F0F5
:1014900077CF8091CF020E9459031092CE02109212
:1014A000CD021092AA0202CF9D9191938F5F7ECFC1
:1014B00085EEB9CF8091D0029091D102A091D20255
:1014C000B091D302892B8A2B8B2B09F4B2CF0E94C7
:1014D000AF010091D0021091D1022091D20230913F
:1014E000D3026C197D098E099F0906171707280773
:1014F000390708F09ECFCDCF0F931F93CF93DF9383
:10150000EC01862F642F8C3208F03AC08A3208F042
:1015100060C0883209F44BC0893209F460C080345D
:1015200008F475C0982F9F73FE01E90FF11D868D99
:101530008F3F09F44EC0903108F436C0282F30E0B8
:10154000F901E255FF4F8491F901E656FF4F0491EE
:10155000F901EA57FF4F1491112379F081110E948C
:101560002701E12FF0E0EE0FFF1FE859FF4FA59193
:10157000B491EC910E2381E009F480E0898F29C0B9
:101580008D3299F108F4CBCF94EB980F923008F09C
:10159000C6CF8F73C80FD11D8E8D411134C061E04D
:1015A0000E947E0160E08E8D0E94500112C08E016B
:1015B000025E1F4FD0E0F80181918F018F3F31F023
:1015C00061E0D03108F062E00E947E01DF5FD63139
:1015D00091F781E0DF91CF911F910F91089570E015
:1015E00090E080E00E94D401F4CF85E090E04330A9
:1015F00010F082E090E0880F991F880F991F0597DF
:101600000197F1F7E6CF62E00E947E01E2CF80E031
:10161000E1CF60E082E00E94500161E083E00E943F
:10162000500161E084E00E94500160E085E00E948A
:10163000500160E086E00E94500160E087E00E9477
:10164000500160E088E00E94500168EE73E080E0A5
:1016500090E00C94D401CF92DF92EF92FF920F931F
:101660001F93CF93DF936C01EB017B01E40EF51E1A
:1016700010E000E0CE15DF0561F06991D601ED9133
:10168000FC910190F081E02DC6010995080F191F0A
:10169000F1CFC801DF91CF911F910F91FF90EF9093
:1016A000DF90CF9008952F923F924F925F926F926A
:1016B0007F928F929F92AF92BF92CF92DF92EF92E2
:1016C000FF920F931F93CF93DF93CDB7DEB7289789
:1016D0000FB6F894DEBF0FBECDBF7C016C0124E0D5
:1016E000C20ED11CFC01E057FF4F0190F081E02DAC
:1016F000C60109958C018E3F9F4F08F061C03701EC
:1017000084E9680E711CF3010190F081E02DFD83E6
:10171000EC835701F2E9AF0EB11CF5018080918096
:10172000970120593F4F3B832A83F9018081813003
:1017300009F470C008F45FC0823009F476C08330C9
:1017400009F482C0F701EC59FF4F918280823296F2
:101750002C813D8131832083389780819181479608
:101760009D838C830F3F110511F008F020C1B696C0
:101770000136110530F40134110558F0F701EE5728
:10178000FF4F808191812C813D81280F391F3D833E
:101790002C838C819D810196FC01249121115FC0D5
:1017A00090E080E0EA81FB812081213009F4C1C111
:1017B00008F4B7C1223009F4BEC1233009F4C3C113
:1017C00081E090E028960FB6F894DEBF0FBECDBF43
:1017D000DF91CF911F910F91FF90EF90DF90CF900D
:1017E000BF90AF909F908F907F906F905F904F9041
:1017F0003F902F900895F701E05AFF4F0190F0813C
:10180000E02DC60109952C813D81280F391F3D83AC
:101810002C8398CFF701E05AFF4F0190F081E02D23
:10182000C6010995881A990A8DCFF701E05AFF4F32
:101830000190F081E02DC6010995EC81FD81E81B46
:10184000F90BFD83EC837ECFF701E05AFF4F019047
:10185000F081E02DC6010995880E991E73CFEC81A9
:10186000FD8124912017110609F09AC0CF0102963C
:10187000009709F495CFF701EE59FF4FF887EF83F2
:10188000918380831286739660818F8198850E94F0
:10189000A808EF81F8858087F701EA58FF4F60813B
:1018A0008F8198850E94A808582EEF81F88581873E
:1018B000970122573F4F3D832C83F9019081EF819F
:1018C000F885948781E0911180E0EF81F885858724
:1018D000F701E958FF4F8080682D8F8198850E941D
:1018E000A808382EF701E858FF4F2080622D8F811D
:1018F00098850E94A808982EF701E758FF4F10819D
:10190000612F8F8198850E94A8089FEF910F01E0B9
:1019100010E0980101C0220F9A95EAF7821B8E838E
:10192000EF81F885408414140CF0C4C08A94C80177
:1019300001C0880F8A94EAF7381AF685F983950C66
:101940002A94C80101C0880F2A94EAF7282E291882
:101950002F2F422D632DEF81F885828193810E9484
:1019600016084C01EF81F885938382832981422DEB
:10197000632D848195810E942F08EF81F8859583DE
:101980008483F981F13009F49AC008F44EC0F23032
:1019900009F4A4C0F33009F4B5C0BC0194014FC0F0
:1019A000FC0184912C813D81280F311DF0CEF7017F
:1019B000EA57FF4F80819181EC81FD81E80FF91F8B
:1019C000FD83EC834F0160E0C4010E94D3082C81A9
:1019D0003D81280F391F3D832C8362E0C4010E94A2
:1019E000D30834E0830E911C8017910760F3EC81DB
:1019F000FD81849190E0982F88273196E4918E2B79
:101A0000009709F4CDCE0817190721F48C819D8128
:101A100003962ECFEC81FD813296E4912C813D819D
:101A20002E0F311D3D832C83E2CF9401240D311DF7
:101A300047FC3A95BC01650D711D57FC7A958B01E9
:101A4000AC01B401C6010E944A06882399F1EF81D6
:101A5000F885168217824701F3E78F0E911C24E761
:101A6000E20EF11CF40160818F8198850E94A80824
:101A7000082FF70160818F8198850E94A808182F90
:101A800040E0602FC6010E94480841E0612FC60176
:101A90000E94480861E08F8198850E94A808811102
:101AA000EFCFEF81F88587818515E4F28485EC819D
:101AB000FD818083FE818F2FFF0F990B73CE051957
:101AC000110957FC139594012F5F3F4FBC01640D22
:101AD000711D47FC7A95800E911EB1CFA801441963
:101AE000510947FC539594012F5F3F4F0519110988
:101AF00057FC1395BC016F5F7F4F800F911F840EC1
:101B0000951E9DCF9401250D311D57FC3A95041962
:101B1000110947FC1395BC016F5F7F4F800F911F28
:101B20008ECFF50120813181820F931F91838083B5
:101B300047CEF301F7CFF50120813181281B390B06
:101B4000318320833DCEF301F7CF089590E080E00C
:101B5000089585ED8093BC008091D0029091D102D0
:101B6000A091D202B091D3020796A11DB11D23E02E
:101B7000B695A795979587952A95D1F72091BC00A2
:101B800024FD03C010921D0308954091D00250918E
:101B9000D1026091D2027091D302452B462B472B84
:101BA00069F30097A105B10541F02AE22A95F1F702
:101BB00000C00197A109B109E1CF8091CF020C9437
:101BC0005903FC01A081B18150962C9182AD38E07F
:101BD000839FC0011124289FA001299F500D11242B
:101BE00070E060E080AD91AD0C945614BF92CF923E
:101BF000DF92EF92FF920F931F93CF93DF938C01AD
:101C000089EF97E00E94E10D6091060170E08091FC
:101C1000050123E030E043E050E090E00E94E2075D
:101C200089EF97E00E94DF0889EF97E00E9409049E
:101C30002091040180910501820F80930501C091DC
:101C40000301909106019C0F9093060181508E37FD
:101C500018F0219520930401911168C0C195C0939B
:101C6000030180910601833388F020910501809162
:101C70000701281758F090E044962817190609F034
:101C80002CF480910301819580930301E801005CAD
:101C90001F4F8CE9F82E90E4E92E20E3D22ECC24BD
:101CA000C3948091050190E0288130E0AC014D5F44
:101CB0005F4F421753070CF400C14A81240F311DB6
:101CC000281739070CF4F9C08091060190E02981AA
:101CD00030E0AC014D5F5F4F421753070CF4EDC08D
:101CE0004B81240F311D281739070CF4E6C0F88208
:101CF000F982B09003018B2D819580930301E091CF
:101D00000101EA3008F0F4C0E150E93008F0B8C051
:101D1000F0E0E357F14F0C9449147A0FBC0ED60E45
:101D2000E80EFA0E080F1E0F6C0F720F9F3308F4A7
:101D300098CF80910201815080930201823059F442
:101D400060E08DE00E94500180E48093050180E313
:101D50008093060183CF813019F460E08CE0F2CFEC
:101D600081117FCF60E08BE00E94500188EC80936E
:101D700005018093060175CF61E082E00E94500169
:101D800061E083E00E94500160E084E00E94500125
:101D900061E085E00E94500161E086E00E94500110
:101DA00060E087E00E94500161E061C061E082E094
:101DB0000E94500161E083E00E94500161E084E0F4
:101DC0000E94500161E085E00E94500160E0E5CF93
:101DD00060E082E00E94500161E083E00E945001D7
:101DE00061E084E00E94500160E085E00E945001C3
:101DF00060E01FC061E082E00E94500160E083E08B
:101E00000E94500161E084E00E94500161E0EDCF4A
:101E100061E082E00E94500160E083E00E94500196
:101E200061E084E00E94500161E085E00E94500181
:101E300061E086E00E94500161E0B3CF61E082E0A2
:101E40000E94500161E083E00E94500161E084E063
:101E50000E94500160E085E00E94500160E086E051
:101E60000E94500160E087E00E94500160E088E03D
:101E70000E94500168EE73E080E090E00E94D4017F
:101E8000809101018F5F80930101809100018F5F3C
:101E900080930001863089F468E873E180E090E087
:101EA0000E94D4018091C8018F5F8093C801E092A5
:101EB0000501D0920601B09203012496C017D10704
:101EC00009F0EFCEDF91CF911F910F91FF90EF902E
:101ED000DF90CF90BF90089561E082E00E945001B2
:101EE00061E09BCF61E082E00E94500161E087CF1A
:101EF000C09201010E94090BC3CF0F931F93CF9390
:101F0000DF938C0189EF97E00E94E10DE801005C0E
:101F10001F4F2B8130E04A8150E0698170E0888159
:101F200090E00E94E20724960C171D0791F789EFB5
:101F300097E00E94DF0889EF97E0DF91CF911F9132
:101F40000F910C9409041F920F920FB60F92112457
:101F50002F933F938F939F93AF93BF9380914403AD
:101F600090914503A0914603B091470330914303FC
:101F700023E0230F2D3758F50196A11DB11D2093A5
:101F800043038093440390934503A0934603B09387
:101F900047038091480390914903A0914A03B0916F
:101FA0004B030196A11DB11D8093480390934903F3
:101FB000A0934A03B0934B03BF91AF919F918F9130
:101FC0003F912F910F900FBE0F901F90189526E80C
:101FD000230F0296A11DB11DD2CF1F920F920FB6F3
:101FE0000F9211242F933F934F935F936F937F939F
:101FF0008F939F93AF93BF93EF93FF938CE493E002
:102000000E948502FF91EF91BF91AF919F918F91B7
:102010007F916F915F914F913F912F910F900FBEE4
:102020000F901F9018951F920F920FB60F921124C8
:102030002F938F939F93EF93FF93E0915C03F09125
:102040005D038081E0916203F091630382FD1BC018
:102050009081809165038F5F8F7320916603821753
:1020600041F0E0916503F0E0E45BFC4F958F8093D5
:102070006503FF91EF919F918F912F910F900FBE6C
:102080000F901F9018958081F4CF1F920F920FB67A
:102090000F9211242F933F934F935F936F937F93EE
:1020A0008F939F93AF93BF93EF93FF938091B9006A
:1020B000887F803609F44AC0F0F5883209F4A7C059
:1020C00018F5803109F49BC0B8F4882309F4F9C0ED
:1020D000883009F494C0FF91EF91BF91AF919F9127
:1020E0008F917F916F915F914F913F912F910F90C1
:1020F0000FBE0F901F901895883109F488C0803268
:1021000051F780931C0314C0803409F49DC040F43F
:102110008033B9F38833F9F680931C0385ECB0C0A3
:10212000803509F485C0883509F496C0883499F65D
:102130000E94A90DD0CF883909F48CC038F58837B2
:1021400029F050F4883611F0803729F683E0809327
:102150001D0310921B0357C0883809F47BC08039D7
:1021600019F0803809F0B7CF80911B03803208F056
:1021700071C0E0911B0381E08E0F80931B0380915F
:10218000BB00F0E0E550FD4F80833DC0803B39F05F
:10219000E0F4803A09F479C0883A09F09CCF84E0F1
:1021A00080931D031092F8021092F702E091F5025D
:1021B000F091F60209958091F70281110FC081E03C
:1021C0008093F7021092D50209C0803C09F4A6CF93
:1021D000883C09F4A3CF883B09F07DCFE091F80259
:1021E00081E08E0F8093F802F0E0EB52FD4F80818A
:1021F0008093BB009091F8028091F70229C08091F2
:1022000042038093BB0085EC8093BC0064CF909127
:10221000410380914003981758F5E091410381E014
:102220008E0F80934103F0E0E05EFC4F8081E9CFA8
:10223000E091410381E08E0F809341038091BB00C8
:10224000F0E0E05EFC4F8083909141038091400379
:102250009817C8F285E8D8CFE091410381E08E0F4E
:10226000809341038091BB00F0E0E05EFC4F8083EF
:1022700080911F0381115CCF81E080931E0384EA6B
:102280008093BC0010921D0326CF85EC8093BC0088
:1022900010921D0380911B03803230F4E0911B03E8
:1022A000F0E0E550FD4F108260911B0370E0E0917B
:1022B000F902F091FA028BEF92E0099510921B035C
:1022C0000ACF10921C0334CFCF9310924F03109279
:1022D0004E0388EE93E0A0E0B0E08093500390932B
:1022E0005103A0935203B093530322E332E030939F
:1022F0004D0320934C0325EC30E030935903209399
:10230000580324EC30E030935B0320935A0320EC15
:1023100030E030935D0320935C0321EC30E0309398
:102320005F0320935E0322EC30E03093610320933F
:10233000600326EC30E03093630320936203109235
:10234000650310926603109267031092680310925F
:10235000EC031092EB038093ED039093EE03A093B4
:10236000EF03B093F00384E492E09093EA03809348
:10237000E9031092F8071092F7078CE890E0909329
:10238000860880938508109288081092870810921A
:102390008A08109289081092110886E592E09093BD
:1023A000F6078093F5071092FA071092F90710923A
:1023B0000E08109205081092060810920708109255
:1023C00008088FEF80930F0880931308E7E1F8E087
:1023D0008DE298E0CFEFC1938E179F07E1F789E870
:1023E00094E09093FE078093FD078EE795E090932D
:1023F00000088093FF078BE399E090930208809395
:1024000001088CE79AE0909304088093030830E079
:1024100020E040E069E089EF97E00E948904109293
:1024200054081092530886E990E090932E08809308
:102430002D0885EF93E0909332088093310888E06F
:102440008093330810923408109262081092820828
:1024500010927E0881E080938308809384088EE543
:1024600092E09093300880932F0889EF97E00E94C4
:10247000F80510924C0810924B08109250081092D8
:102480004F088FEF9FEF90934E0880934D089093E5
:10249000520880935108E0912F08F0913008028093
:1024A000F381E02D89EF97E0099585E091E0909325
:1024B00056088093550810926508C0932208C0936F
:1024C0002308C0932408CF910895789484B582603E
:1024D00084BD84B5816084BD85B5826085BD85B5C8
:1024E000816085BD80916E00816080936E00109246
:1024F00081008091810082608093810080918100C1
:102500008160809381008091800081608093800051
:102510008091B10084608093B1008091B0008160AF
:102520008093B00080917A00846080937A008091DB
:102530007A00826080937A0080917A008160809333
:102540007A0080917A00806880937A001092C100AE
:10255000E091FD07F091FE0730E020E040E06AE006
:1025600089EF97E0099580918408882321F089EF0D
:1025700097E00E94E10D80E00E94080189EF97E05A
:102580000E94DF08C091340880913308C80FE091A1
:10259000F907F091FA078189C81708F4F5C089EFA7
:1025A00097E00E94090480E00E940801E091FD0785
:1025B000F091FE0730E020E040E06BE089EF97E02B
:1025C0000995E0915C03F0915D0382E08083E091E6
:1025D0005803F09159031082E0915A03F0915B0384
:1025E0008FEC808310926403E0916003F0916103AB
:1025F00086E08083E0915E03F0915F0380818061DB
:102600008083E0915E03F0915F0380818860808326
:10261000E0915E03F0915F03808180688083E091A8
:102620005E03F0915F0380818F7D808361E082E0B3
:102630000E947E0161E083E00E947E0161E084E00F
:102640000E947E0161E085E00E947E0161E086E0FB
:102650000E947E0161E087E00E947E0161E088E0E7
:102660000E947E0161E08BE00E947E0161E08CE0CF
:102670000E947E0161E08DE00E947E0161E08BE0BE
:102680000E94500161E08CE00E94500161E08DE009
:102690000E94500161E082E00E94500161E083E00D
:1026A0000E94500161E084E00E94500161E085E0F9
:1026B0000E94500161E086E00E94500161E087E0E5
:1026C0000E94500160E088E00E94500168EE73E0D3
:1026D00080E090E00E94D401D0E4CC24CA9483E04E
:1026E000D82EE12CF12C00E010E0D0937C008091FA
:1026F0007A00806480937A0080917A0086FDFCCF16
:10270000A0917800B09179002CE630E00E944F143F
:10271000A70196010E94EE13C22FB32E89EF97E016
:102720000E94E10D23E030E044E150E066E370E018
:102730008C2F9B2D0E94E20789EF97E00E94DF0813
:1027400089EF97E00E940904C09307018091C801B6
:10275000813021F588E891E00E947D0F88E891E0C2
:102760000E94F60D64E170E080E090E00E94D401E8
:102770000115110509F4B9CF0E947102882309F4EB
:10278000B4CF0E940000B1CF80918408882321F04B
:1027900089EF97E00E94E10D8C2FEECE823039F464
:1027A00088E491E00E947D0F88E491E0D9CF8330E6
:1027B00049F488E091E00E94F60D88E091E00E94E3
:1027C0007D0FD0CF843039F488E491E00E94F60D7B
:1027D00088E491E0F4CF853029F6EBCF052E97FB06
:1027E0001EF400940E94051457FD07D00E9418148F
:1027F00007FC03D04EF40C94051450954095309589
:1028000021953F4F4F4F5F4F08959095809570955C
:1028100061957F4F8F4F9F4F08950E943A14A59F57
:10282000900DB49F900DA49F800D911D11240895CB
:10283000A1E21A2EAA1BBB1BFD010DC0AA1FBB1FC4
:10284000EE1FFF1FA217B307E407F50720F0A21B36
:10285000B30BE40BF50B661F771F881F991F1A94A3
:1028600069F760957095809590959B01AC01BD01CD
:10287000CF010895A29FB001B39FC001A39F700D27
:10288000811D1124911DB29F700D811D1124911D78
:102890000895EE0FFF1F0590F491E02D09940E941A
:1028A0003A14B7FF0895821B930B0895DC0101C011
:1028B0006D9341505040E0F70895F894FFCF010127
:1028C00003FE0240303B02021003380210036E0286
:1028D000100314071003260710034A0710035C07B0
:1028E0001003020C1003380C10036E0C10031411AB
:1028F0001003261110034A1110035C111003021675
:1029000010036E1610031D0210032F021003410264
:102910001003530210030B071003650710030B0C81
:1029200010032F0C1003410C1003650C10030B1146
:102930001003651110031D1610032F161003411606
:102940001003531610030202100314021003260290
:102950001003380210034A0210035C0210036E02D7
:1029600010031407100326071003380710034A0743
:1029700010035C071003260C1003380C10034A0CDC
:10298000100338111003011815A015C019FF1815F0
:10299000A115C819FF1815AE19FF1815AF19FF18A2
:1029A00015AE15D5168015A8163F15D3160015407F
:1029B000158D16141520160015A115C815DA161256
:1029C000158116CF15D916F115DB1640152E15A455
:1029D00015A619FF0001140A6464323200127A004D
:1029E000000428961008000080004000000000004D
:1029F000A70207023402F4026502430257020000F4
:102A00000000D303A603A60D7C039F038C037D0364
:102A100000000000530B2B0BA60DA50DF805830637
:022A2000E805C7
:107E0000112484B714BE81FFF0D085E080938100F7
:107E100082E08093C00088E18093C10086E0809377
:107E2000C20080E18093C4008EE0C9D0259A86E02C
:107E300020E33CEF91E0309385002093840096BBD3
:107E4000B09BFECF1D9AA8958150A9F7CC24DD24C4
:107E500088248394B5E0AB2EA1E19A2EF3E0BF2EE7
:107E6000A2D0813461F49FD0082FAFD0023811F036
:107E7000013811F484E001C083E08DD089C08234E0
:107E800011F484E103C0853419F485E0A6D080C0E4
:107E9000853579F488D0E82EFF2485D0082F10E0AE
:107EA000102F00270E291F29000F111F8ED06801E7
:107EB0006FC0863521F484E090D080E0DECF843638
:107EC00009F040C070D06FD0082F6DD080E0C81688
:107ED00080E7D80618F4F601B7BEE895C0E0D1E017
:107EE00062D089930C17E1F7F0E0CF16F0E7DF06D8
:107EF00018F0F601B7BEE89568D007B600FCFDCFD4
:107F0000A601A0E0B1E02C9130E011968C91119780
:107F100090E0982F8827822B932B1296FA010C0160
:107F200087BEE89511244E5F5F4FF1E0A038BF0790
:107F300051F7F601A7BEE89507B600FCFDCF97BE46
:107F4000E89526C08437B1F42ED02DD0F82E2BD052
:107F50003CD0F601EF2C8F010F5F1F4F84911BD097
:107F6000EA94F801C1F70894C11CD11CFA94CF0C13
:107F7000D11C0EC0853739F428D08EE10CD085E9AC
:107F80000AD08FE07ACF813511F488E018D01DD067
:107F900080E101D065CF982F8091C00085FFFCCF94
:107FA0009093C60008958091C00087FFFCCF809118
:107FB000C00084FD01C0A8958091C6000895E0E648
:107FC000F0E098E1908380830895EDDF803219F02E
:107FD00088E0F5DFFFCF84E1DECF1F93182FE3DFCA
:107FE0001150E9F7F2DF1F91089580E0E8DFEE27F6
:047FF000FF270994CA
:027FFE00040479
:00000001FF
