:020000040000FA
:100000000C9462000C948A000C948A000C948A0070
:100010000C948A000C948A000C948A000C948A0038
:100020000C948A000C948A000C948A000C948A0028
:100030000C948A000C948A000C948A000C948A0018
:100040000C94E90C0C948A000C948A000C948A009D
:100050000C948A000C948A000C948A000C948A00F8
:100060000C94330D0C948A0000000000230026003D
:10007000290000000000240027002A0000000000E2
:10008000250028002B0004040404040404040202D4
:100090000202020203030303030301020408102007
:1000A0004080010204081020010204081020000012
:1000B0000008000201000003040700000000000027
:1000C0000000520E11241FBECFEFD8E0DEBFCDBF1F
:1000D00012E0A0E0B1E0E0E4F5E202C005900D928C
:1000E000A831B107D9F727E0A8E1B2E001C01D921D
:1000F000A23AB207E1F710E0C2E6D0E004C02197CF
:10010000FE010E948A12C136D107C9F70E94150F5D
:100110000C949E120C940000662329F06A3019F0AA
:10012000862F90E008958FEF9FEF0895AF92BF92D2
:10013000CF92DF92EF92FF920F93CF93DF93EC0178
:10014000DA017901942F9770E1E0F0E09F01092E28
:1001500001C0220F0A94EAF7522F6E018AE8C80EF6
:10016000D11CF601808140E0823018F4422F8130AA
:1001700049F15D01F8EFAF22E8ADF9AD2881398191
:10018000D90150968C918A9D90018B9D300D112440
:10019000620F731FDF01A60FB71F01111AC0EA0E0D
:1001A000FB1E8C91842B85278D93AE15BF05C9F757
:1001B000DF91CF910F91FF90EF90DF90CF90BF90A4
:1001C000AF90089550E0D5CF440F550FE114F104DE
:1001D00079F33C91342B35273C939F5F9770E1E096
:1001E000EE1AF1089111F0CF2CAD3DADA20FB31F67
:1001F000F6018081823028F4813009F051E041E03D
:10020000E5CF51E0E3CF80E0089590E080E00895ED
:10021000CF93DF93CCE0D7E08FAFEAADFBAD019099
:10022000F081E02D80E197E00995EAADFBAD028019
:10023000F381E02D80E197E0DF91CF9109949B015C
:10024000DC011896ED91FC9141E067E1099483305F
:1002500081F028F4813099F08230A9F00895873038
:10026000A9F08830C9F08430B1F4809180008F7D8E
:1002700003C0809180008F7780938000089584B5BB
:100280008F7784BD089584B58F7DFBCF8091B000BA
:100290008F778093B00008958091B0008F7DF9CF63
:1002A0001F93CF93DF93282F30E0F901E255FF4FE2
:1002B0008491F901E656FF4FD491F901EA57FF4FB7
:1002C000C491CC23A9F0162F81110E942701EC2F95
:1002D000F0E0EE0FFF1FE458FF4FA591B4918FB7E8
:1002E000F894EC91111108C0D095DE23DC938FBFF8
:1002F000DF91CF911F910895DE2BF8CFCF93DF933D
:1003000090E0FC01E656FF4F24918A579F4FFC0175
:1003100084918823D1F090E0880F991FFC01EE585A
:10032000FF4FA591B491FC01E458FF4FC591D491C2
:10033000623071F49FB7F8943C91822F80958323AB
:100340008C93E8812E2B28839FBFDF91CF91089556
:100350008FB7F894EC912E2B2C938FBFF6CF3FB72D
:10036000F8948091FC029091FD02A091FE02B09160
:10037000FF0226B5A89B05C02F3F19F00196A11DCD
:10038000B11D3FBFBA2FA92F982F8827BC01CD01DF
:10039000620F711D811D911D42E0660F771F881F3E
:1003A000991F4A95D1F708958F929F92AF92BF926D
:1003B000CF92DF92EF92FF926B017C010E94AF011E
:1003C0004B015C01C114D104E104F104B9F00E94B5
:1003D000AF01681979098A099B09683E7340810554
:1003E000910580F321E0C21AD108E108F10888EEF6
:1003F000880E83E0981EA11CB11CE4CFFF90EF9003
:10040000DF90CF90BF90AF909F908F9008952091F4
:10041000AB02260F3327331F21323105ECF4209134
:10042000D102FC0190E080E0243069F082E0089580
:10043000A091AB022191AC0147575D4FA40FB52F9E
:10044000B11D2C930196861798F38091AB02680F2B
:100450006093AB0280E0089581E008951092D1028C
:1004600081E08093D3021092D20261E082E10E9487
:10047000500161E083E10E945001E9EBF0E08081EE
:100480008E7F808380818D7F808388E48093B80015
:1004900085E48093BC000895CF93DF9391E090931F
:1004A00088028823B9F0C091B800D091BA00809139
:1004B000BC008A7B8093BC0060E082E10E94500116
:1004C00060E083E10E9450010E942E02D093BA00A6
:1004D000C093B800DF91CF910895089508950895CD
:1004E000E091800280917F02E81730F4F0E0E15A59
:1004F000FD4F808190E008958FEF9FEF08959091D8
:10050000800280917F022FEF3FEF981748F4E92F88
:10051000F0E0E15AFD4F208130E09F5F9093800230
:10052000C901089580917F0290918002891B990BE7
:100530000895CF92DF92EF92FF920F931F93CF9384
:10054000DF937C01CB018A0120915E02222389F096
:10055000EB016B01C40ED51ECC15DD0569F0699168
:10056000D701ED91FC910190F081E02DC701099533
:10057000F3CF642F0E940702C801DF91CF911F9132
:100580000F91FF90EF90DF90CF900895CF93DF937E
:100590001F92CDB7DEB7698320915E022223F9F066
:1005A00020918102203258F021E030E0FC013383B9
:1005B000228390E080E00F90DF91CF9108958091A9
:1005C0008202E82FF0E0E25CFD4F998190838F5F1B
:1005D000809382028093810281E090E0ECCF61E021
:1005E000CE0101960E940702F7CFDC011A96ED9129
:1005F000FC9130E020E00994DC011496ED91FC912F
:1006000030E020E040E060E10994DC011696ED91D5
:10061000FC9130E020E040E069E10994DC011696AD
:10062000ED91FC9130E020E040E068E109949A010E
:10063000DC011696ED91FC91462F67E10994EF924B
:10064000FF920F931F93CF93DF931F92CDB7DEB727
:100650007C018B01D8016C91673129F150F465312F
:10066000A0F40F90DF91CF911F910F91FF90EF9029
:1006700008956A3118F16E3FA1F7F801418149836D
:1006800069E2C7010E94F5020BC0F801418149836C
:10069000D7011696ED91FC9130E020E0C701099555
:1006A0000E5F1F4FD7CFF80181818983AE014F5F65
:1006B0005F4F61E0C7010E941703F2CF0F5F1F4F2A
:1006C000D7011696ED91FC9130E020E040E0C701A3
:1006D0000995C0CF462FDC011696ED91FC9130E0D4
:1006E00020E066E10994462FDC011696ED91FC911D
:1006F00030E020E065E10994EF92FF920F931F93A1
:10070000CF93DF93EC01042F79016D3009F446C0DB
:1007100050F46B30C9F1693009F49FC06A3009F4B4
:1007200065C080E046C06E3009F452C06F3099F762
:100730000E940E03F7011381110F110F110F6C8925
:10074000160F60E4CE010E947303612F62956F70F3
:100750006061CE010E947303612F6F70CE010E9411
:100760006A03F7016481606BCE010E946A03F7019E
:10077000408151816281660F660F660FCE010E9433
:1007800017030150A1F72EC061EA71E0442311F074
:100790006CE971E0CE010E941F030AC0411110C034
:1007A00065E971E00E941F03E881F98182898C8BE1
:1007B00081E0DF91CF911F910F91FF90EF9008950D
:1007C0006EE871E00E941F03E881F9818389EFCF11
:1007D0000E940E0361E8CE010E947303602FCE01D8
:1007E0000E946A03CE010E940503E2CFEA85FB85E1
:1007F00030E020E040E068E2CE010995EE81FF8123
:1008000030E020E040E064E1CE01099541E06BE496
:10081000CE010E94F502E881F981448169E2CE01AE
:100820000E94F50240E06BE4CE010E94F502E881EF
:10083000F981448169E2CE010E94F50241E06BE456
:10084000CE010E94F502E881F981458169E2CE017D
:100850000E94F50266EA71E09DCF8BED91E09983ED
:1008600088831C8AA5CFDC011896ED91FC9130E0BD
:1008700020E040E069E10994DC011896ED91FC91DB
:1008800030E020E040E068E10994CF93DF931F92CD
:10089000CDB7DEB76983BE016F5F7F4F0E941F0136
:1008A0000F90DF91CF910895EF92FF921F93CF9316
:1008B000DF93EC01162F7A010E943C0460E4CE0124
:1008C0000E944504E885F9859701412F67E1CE0133
:1008D0000995CE01DF91CF911F91FF90EF900C947D
:1008E0003304EF92FF921F93CF93DF93EC01142F09
:1008F0007901663181F138F4643109F44BC0653116
:1009000079F080E022C06831C9F150F16931C9F74E
:1009100080913D02882391F1CE010E9433042EC0C4
:1009200080913D02882319F0CE010E943304CE014C
:100930000E943C0460E0CE010E944504612FCE017C
:100940000E94450481E080933D02DF91CF911F9189
:10095000FF90EF900895642F0E94450481E0F5CF49
:1009600080913D02882319F0CE010E943304A70133
:10097000193138F4612FCE010E94540410923D02C7
:10098000EDCF68E1CE010E945404185188E1E80ED1
:10099000F11CEDCF8E898F3F11F488E78E8BE885AF
:1009A000F9859701412F64E1CE01DF91CF911F912D
:1009B000FF90EF9009940F93FC01E05CFF4F0190D2
:1009C000F081E02D4E1B5F0BDC01D496ED91FC9184
:1009D00009950F910895CF93DF93FC01A081B18118
:1009E00082AD90E09C0143E0220F331F4A95E1F76E
:1009F00037AF26AF50962C91509748E0249F900136
:100A0000112435AF24AF23AD30E0B90153E0660FB8
:100A1000771F5A95E1F7EF01C05CDF4F7983688358
:100A200051964C915197E901C80FD91F50E04C17CE
:100A30005D0718F4CA01821B930BEF01CE5BDF4FF9
:100A400079836883229623E0880F991F2A95E1F71E
:100A5000860F971F99838883229654968D919C9137
:100A6000559799838883E85BFF4F56968D919C91AB
:100A700091838083DF91CF9108950F931F93FC01A1
:100A8000E25BFF4F0190F081E02DDC01A05BBF4FE6
:100A90000D90BC91A02D4A175B0740F4E017F107B9
:100AA00048F00417150730F080E019C0E017F1078F
:100AB000C0F3FACFFC01E65BFF4F40815181845BBC
:100AC0009F4FFC01808191816817790758F481E07C
:100AD0004217530720F081E02617370728F71F91A8
:100AE0000F91089542175307B0F3DECF2F923F9234
:100AF0004F925F926F927F928F929F92AF92BF922E
:100B0000CF92DF92EF92FF920F931F93CF93DF93D9
:100B1000CDB7DEB72A970FB6F894DEBF0FBECDBFB4
:100B20009A878987865B9F4F9A838983FC0111820C
:100B30001082E985FA85EA5BFF4F40805180298564
:100B40003A85245B3F4F3C832B83F90151824082DD
:100B5000E985FA85EE5BFF4F2080318029853A8553
:100B6000225B3F4F3E832D83F90131822082E9854C
:100B7000FA85EC5BFF4F6080718029853A85205BA8
:100B80003F4F38872F83F90171826082E985FA85AA
:100B9000E85AFF4FE080F180E985FA85EC5AFF4F73
:100BA000A080B180E985FA85EA5AFF4FC080D180E4
:100BB000E985FA85EE5AFF4F808091808701950183
:100BC000A601B40189859A850E943D0529853A854B
:100BD0002C573F4F3A87298781111BC0F90110829A
:100BE0002A960FB6F894DEBF0FBECDBFDF91CF912E
:100BF0001F910F91FF90EF90DF90CF90BF90AF903B
:100C00009F908F907F906F905F904F903F902F902C
:100C1000089581E0E985FA8580838114910421F0AB
:100C2000E981FA8191828082A414B50420F4EB81D9
:100C3000FC81B182A0822C143D0420F4ED81FE8160
:100C4000D182C082E614F70458F6EF81F885F1826C
:100C5000E082C6CF0F93CF93DF93E02FDC01AC5738
:100C6000BF4FFC91FF2309F460C02115310509F441
:100C70005CC02230310538F0023009F04AC06F5FA5
:100C80007F4F621B730B0E2F0170E0FD52C0FC0101
:100C9000E25BFF4F0190F081E02D4E175F0708F4F3
:100CA00044C0FC01E05BFF4F0190F081E02D4E1746
:100CB0005F07D8F5FC01E45BFF4F0190F081E02D68
:100CC000DC01A65BBF4F0D90BC91A02D260F371FF6
:100CD0002617370738F56E177F0718F59F01215043
:100CE0003109A217B30708F56A177B0708F4BD019D
:100CF0002E173F0708F4F901E61BF70BEC01AEA92C
:100D0000BFA914960D90BC91A02D9F01FD010995DE
:100D10000CC0033009F0B7CF4F5F5F4F421B530B3E
:100D2000B2CFBD016E177F07E0F2DF91CF910F9137
:100D30000895FC01E65BFF4F0190F081E02D6E17F6
:100D40007F0798F3FC01E45BFF4F0190F081E02DF9
:100D50006E177F0750F7FC01E05BFF4F0190F081B9
:100D6000E02DDC01A25BBF4F0D90BC91A02D240FA4
:100D7000351F24173507A8F44E175F0788F49F0125
:100D800021503109A217B30780F64A175B0708F410
:100D9000AD012E173F0708F4F901E41BF50BAECFA8
:100DA000AD014E175F0708F6EDCFAF92BF92CF921D
:100DB000DF92EF92FF920F931F93CF93DF936C011B
:100DC000EB015A017B01E20EF31E9C01240F351F3B
:100DD0008701AB01BC0180E197E00E943D058111D4
:100DE00014C0DF91CF911F910F91FF90EF90DF9092
:100DF000CF90BF90AF90089500E09501AE01B6018D
:100E000080E197E00E942A062196EC16FD06A1F7E4
:100E1000E8CF213069F038F0223079F0840F911D4D
:100E200047FD9A950895860F911D67FD9A9508953F
:100E3000841B910947FD93950895861B910967FDD1
:100E400093950895213069F038F0223079F0861BAF
:100E5000910967FD93950895840F911D47FD9A951B
:100E60000895860F911D67FD9A950895841B910939
:100E700047FD939508953F924F925F926F927F92B4
:100E80008F929F92AF92BF92CF92DF92EF92FF929A
:100E90000F931F93CF93DF937C01162F442EEC0109
:100EA000C25ADF4F5E806F806C018AE8C80ED11C89
:100EB00078847518312E711608F4372C8C809D803B
:100EC0000E85202F462D652D8A819B810E94090762
:100ED0005C01202F462D652DC4010E942207AC0124
:100EE000442079F08C85F6018083232D30E0B50114
:100EF000C7010E942A06171548F017196394512C50
:100F0000D7CF8B858111F7CF8D85EDCF150D1E8342
:100F10006F82DF91CF911F910F91FF90EF90DF9043
:100F2000CF90BF90AF909F908F907F906F905F9089
:100F30004F903F900895DC011A964C911A97ED91CD
:100F4000FC911197249130E0042E02C0359527952D
:100F50000A94E2F7842F860F883068F03196119654
:100F6000FC93EE93E49198E0941B01C0EE0F9A95E8
:100F7000EAF72E2B88501A968C938FEF9FEF01C0C3
:100F8000880F6A95EAF7809582230895FC01E60FA1
:100F9000F11D849190E0982F88273196E4918E0F6F
:100FA000911D0895AF92BF92CF92DF92EF92FF9280
:100FB0000F931F93CF93DF9300D000D01F92CDB734
:100FC000DEB78C01DC01DA96AC90DA97DB96EC9018
:100FD000DB97ED91FC91B188FE2CD12CC12CD8016E
:100FE000ED91FC9111978089D8962D913C911C82AE
:100FF000FD828B83B8E08B9FC00111248C9DA001E2
:101000008D9D500D9C9D500D1124240F351F3A834A
:101010002983D8011496ED91FC919E012F5F3F4FDB
:1010200041E06FE0C8010995F3948F2D8E198A1560
:1010300028F4BFEFCB1ADB0AFB1488F20F900F9055
:101040000F900F900F90DF91CF911F910F91FF9014
:10105000EF90DF90CF90BF90AF900895CF92DF9246
:10106000EF92FF920F931F93CF93DF93EC01962F94
:10107000683109F44BC0B901993130F49431C9F0A9
:10108000973189F080E006C0993109F461C090324F
:10109000C9F781E0DF91CF911F910F91FF90EF9001
:1010A000DF90CF90089550E080E093E00E94990295
:1010B000F0CF8C859D85AE85BF85892B8A2B8B2BA8
:1010C00071F4E881F981A585B0E020EA36E841E0D5
:1010D00050E00E944E126C877D878E879F8710920A
:1010E000800210927F0210928202109281020E946E
:1010F0002E028DE692E09093AA028093A9028EE6DA
:1011000092E09093AE028093AD02C3CF2C853D85D3
:101110004E855F8560E074E284EF90E00E94591292
:101120002051310941095109569547953795279521
:101130002093B8008E8990E09595879591E09093E3
:101140005E0280933C021092820210928102A1CF33
:10115000D0918102D13208F093C0C0913C020E942C
:10116000AF016B017C018091D102811164C082E0EA
:101170008093D10281E08093D3028FEF8093D002DD
:101180001092F502D093F402AEE3B2E0E4EDF2E0A7
:1011900080E0D8137CC01092F6028091F602CC0F4A
:1011A000C82BC093F6028091D202813009F073C03F
:1011B0001092D2020E94AF016B017C018091F60275
:1011C0008093BB008091840290918502A091860259
:1011D000B0918702892B8A2B8B2B99F00E94AF014B
:1011E000009184021091850220918602309187023D
:1011F0006C197D098E099F090617170728073907FB
:10120000D8F18091BC0083FDD9CF85EC8093BC00E0
:101210000E94AF016B017C018091D1028230E9F123
:101220008091D0028F3F61F18091D002803241F1F4
:101230008091D00225C08091840290918502A09176
:101240008602B0918702892B8A2B8B2B09F48BCFD6
:101250000E94AF01009184021091850220918602C4
:10126000309187026C197D098E099F0906171707AF
:101270002807390708F077CF809183020E944C023B
:10128000109282021092810210925E0202CF9D9112
:1012900091938F5F7ECF85EEB9CF8091840290913C
:1012A0008502A0918602B0918702892B8A2B8B2B15
:1012B00009F4B2CF0E94AF0100918402109185021F
:1012C00020918602309187026C197D098E099F0951
:1012D000061717072807390708F09ECFCDCF0F93C1
:1012E0001F93CF93DF93EC01862F642F8C3208F08D
:1012F0003AC08A3208F060C0883209F44BC08932A3
:1013000009F460C0803408F475C0982F9F73FE0103
:10131000E90FF11D868D8F3F09F44EC0903108F41E
:1013200036C0282F30E0F901E255FF4F8491F901D2
:10133000E656FF4F0491F901EA57FF4F149111232C
:1013400079F081110E942701E12FF0E0EE0FFF1FDD
:10135000E859FF4FA591B491EC910E2381E009F477
:1013600080E0898F29C08D3299F108F4CBCF94EBBE
:10137000980F923008F0C6CF8F73C80FD11D8E8D95
:10138000411134C061E00E947E0160E08E8D0E94B8
:10139000500112C08E01025E1F4FD0E0F801819112
:1013A0008F018F3F31F061E0D03108F062E00E94A0
:1013B0007E01DF5FD63191F781E0DF91CF911F9100
:1013C0000F91089570E090E080E00E94D401F4CF86
:1013D00085E090E0433010F082E090E0880F991FA4
:1013E000880F991F05970197F1F7E6CF62E00E94F9
:1013F0007E01E2CF80E0E1CF60E082E00E94500118
:1014000061E083E00E94500161E084E00E945001AD
:1014100060E085E00E94500160E086E00E9450019B
:1014200060E087E00E94500160E088E00E94500187
:1014300068EE73E080E090E00C94D401CF92DF92EC
:10144000EF92FF920F931F93CF93DF936C01EB0109
:101450007B01E40EF51E10E000E0CE15DF0561F023
:101460006991D601ED91FC910190F081E02DC601CA
:101470000995080F191FF1CFC801DF91CF911F9176
:101480000F91FF90EF90DF90CF9008952F923F92B1
:101490004F925F926F927F928F929F92AF92BF9284
:1014A000CF92DF92EF92FF920F931F93CF93DF9330
:1014B000CDB7DEB728970FB6F894DEBF0FBECDBF0D
:1014C0007C016C0124E0C20ED11CFC01E057FF4FEF
:1014D0000190F081E02DC60109958C018E3F9F4F50
:1014E00008F061C0370184E9680E711CF3010190B6
:1014F000F081E02DFD83EC835701F2E9AF0EB11CC2
:10150000F50180809180970120593F4F3B832A83CA
:10151000F9018081813009F470C008F45FC0823025
:1015200009F476C0833009F482C0F701EC59FF4F0B
:101530009182808232962C813D813183208338973D
:101540008081918147969D838C830F3F110511F017
:1015500008F020C1B6960136110530F401341105AA
:1015600058F0F701EE57FF4F808191812C813D812A
:10157000280F391F3D832C838C819D810196FC01AE
:10158000249121115FC090E080E0EA81FB812081FD
:10159000213009F4C1C108F4B7C1223009F4BEC139
:1015A000233009F4C3C181E090E028960FB6F89487
:1015B000DEBF0FBECDBFDF91CF911F910F91FF9086
:1015C000EF90DF90CF90BF90AF909F908F907F90E3
:1015D0006F905F904F903F902F900895F701E05AE1
:1015E000FF4F0190F081E02DC60109952C813D81CE
:1015F000280F391F3D832C8398CFF701E05AFF4F06
:101600000190F081E02DC6010995881A990A8DCFC5
:10161000F701E05AFF4F0190F081E02DC6010995D6
:10162000EC81FD81E81BF90BFD83EC837ECFF70194
:10163000E05AFF4F0190F081E02DC6010995880E18
:10164000991E73CFEC81FD8124912017110609F0BA
:101650009AC0CF010296009709F495CFF701EE5991
:10166000FF4FF887EF8391838083128673966081A2
:101670008F8198850E949B07EF81F8858087F7010D
:10168000EA58FF4F60818F8198850E949B07582EF2
:10169000EF81F8858187970122573F4F3D832C8347
:1016A000F9019081EF81F885948781E0911180E0C4
:1016B000EF81F8858587F701E958FF4F8080682D15
:1016C0008F8198850E949B07382EF701E858FF4FBD
:1016D0002080622D8F8198850E949B07982EF701AC
:1016E000E758FF4F1081612F8F8198850E949B07DB
:1016F0009FEF910F01E010E0980101C0220F9A9531
:10170000EAF7821B8E83EF81F885408414140CF075
:10171000C4C08A94C80101C0880F8A94EAF7381AB5
:10172000F685F983950C2A94C80101C0880F2A9484
:10173000EAF7282E29182F2F422D632DEF81F885E7
:10174000828193810E9409074C01EF81F885938380
:1017500082832981422D632D848195810E942207F5
:10176000EF81F88595838483F981F13009F49AC07B
:1017700008F44EC0F23009F4A4C0F33009F4B5C047
:10178000BC0194014FC0FC0184912C813D81280F44
:10179000311DF0CEF701EA57FF4F80819181EC8136
:1017A000FD81E80FF91FFD83EC834F0160E0C40168
:1017B0000E94C6072C813D81280F391F3D832C8351
:1017C00062E0C4010E94C60734E0830E911C8017BA
:1017D000910760F3EC81FD81849190E0982F882738
:1017E0003196E4918E2B009709F4CDCE0817190796
:1017F00021F48C819D8103962ECFEC81FD81329660
:10180000E4912C813D812E0F311D3D832C83E2CF4D
:101810009401240D311D47FC3A95BC01650D711DE5
:1018200057FC7A958B01AC01B401C6010E943D05BD
:10183000882399F1EF81F885168217824701F3E733
:101840008F0E911C24E7E20EF11CF40160818F8160
:1018500098850E949B07082FF70160818F819885EA
:101860000E949B07182F40E0602FC6010E943B0793
:1018700041E0612FC6010E943B0761E08F8198859E
:101880000E949B078111EFCFEF81F8858781851535
:10189000E4F28485EC81FD818083FE818F2FFF0F30
:1018A000990B73CE0519110957FC139594012F5FFD
:1018B0003F4FBC01640D711D47FC7A95800E911E4F
:1018C000B1CFA8014419510947FC539594012F5FEA
:1018D0003F4F0519110957FC1395BC016F5F7F4FEE
:1018E000800F911F840E951E9DCF9401250D311DF3
:1018F00057FC3A950419110947FC1395BC016F5F19
:101900007F4F800F911F8ECFF50120813181820F93
:10191000931F9183808347CEF301F7CFF501208198
:101920003181281B390B318320833DCEF301F7CF62
:10193000089590E080E0089585ED8093BC0080914B
:10194000840290918502A0918602B0918702079649
:10195000A11DB11D23E0B695A795979587952A956A
:10196000D1F72091BC0024FD03C01092D10208954C
:1019700040918402509185026091860270918702A5
:10198000452B462B472B69F30097A105B10541F084
:101990002AE22A95F1F700C00197A109B109E1CF28
:1019A000809183020C944C02FC01A081B18150967D
:1019B0002C9182AD38E0839FC0011124289FA001A3
:1019C000299F500D112470E060E080AD91AD0C9422
:1019D00097121F920F920FB60F9211242F933F93DD
:1019E0008F939F93AF93BF938091F8029091F902E8
:1019F000A091FA02B091FB023091F70223E0230F8D
:101A00002D3758F50196A11DB11D2093F702809343
:101A1000F8029093F902A093FA02B093FB0280912E
:101A2000FC029091FD02A091FE02B091FF0201968E
:101A3000A11DB11D8093FC029093FD02A093FE02B4
:101A4000B093FF02BF91AF919F918F913F912F91E2
:101A50000F900FBE0F901F90189526E8230F029647
:101A6000A11DB11DD2CF1F920F920FB60F9211245C
:101A70002F933F934F935F936F937F938F939F9396
:101A8000AF93BF93EF93FF938091B900887F803627
:101A900009F44AC0F0F5883209F4A7C018F580317E
:101AA00009F49BC0B8F4882309F4F9C0883009F41C
:101AB00094C0FF91EF91BF91AF919F918F917F91D2
:101AC0006F915F914F913F912F910F900FBE0F90AB
:101AD0001F901895883109F488C0803251F780939F
:101AE000D00214C0803409F49DC040F48033B9F3AF
:101AF0008833F9F68093D00285ECB0C0803509F4C4
:101B000085C0883509F496C0883499F60E949C0CEB
:101B1000D0CF883909F48CC038F5883729F050F4D3
:101B2000883611F0803729F683E08093D102109235
:101B3000CF0257C0883809F47BC0803919F080384B
:101B400009F0B7CF8091CF02803208F071C0E091E8
:101B5000CF0281E08E0F8093CF028091BB00F0E036
:101B6000E155FD4F80833DC0803B39F0E0F4803A81
:101B700009F479C0883A09F09CCF84E08093D102BF
:101B80001092AC021092AB02E091A902F091AA026D
:101B900009958091AB0281110FC081E08093AB0267
:101BA0001092890209C0803C09F4A6CF883C09F450
:101BB000A3CF883B09F07DCFE091AC0281E08E0F8E
:101BC0008093AC02F0E0E757FD4F80818093BB002B
:101BD0009091AC028091AB0229C08091F602809373
:101BE000BB0085EC8093BC0064CF9091F50280919E
:101BF000F402981758F5E091F50281E08E0F80937A
:101C0000F502F0E0EC52FD4F8081E9CFE091F50262
:101C100081E08E0F8093F5028091BB00F0E0EC52E2
:101C2000FD4F80839091F5028091F4029817C8F2DD
:101C300085E8D8CFE091F50281E08E0F8093F50220
:101C40008091BB00F0E0EC52FD4F80838091D30285
:101C500081115CCF81E08093D20284EA8093BC0042
:101C60001092D10226CF85EC8093BC001092D10255
:101C70008091CF02803230F4E091CF02F0E0E15564
:101C8000FD4F10826091CF0270E0E091AD02F091C3
:101C9000AE028FEA92E009951092CF020ACF10921D
:101CA000D00234CFCF93109203031092020388EE38
:101CB00093E0A0E0B0E08093040390930503A09329
:101CC0000603B093070387EF91E09093010380939D
:101CD000000310920F0710920E078CE890E090938B
:101CE0009D0780939C0710929F0710929E07109269
:101CF000A1071092A0071092280789E092E0909324
:101D00000D0780930C071092110710921007109284
:101D1000250710921C0710921D0710921E071092A3
:101D20001F078FEF8093260780932A07EEE2F7E0E4
:101D300084E497E0CFEFC1938E179F07E1F78CE71C
:101D400093E0909315078093140781E794E09093B4
:101D50001707809316078EE298E0909319078093F7
:101D600018078FE699E090931B0780931A0730E0DD
:101D700020E040E069E080E197E00E947C0310925F
:101D80006B0710926A0786E990E09093450780936D
:101D900044078CE093E0909349078093480788E0DC
:101DA00080934A0710924B07109279071092990777
:101DB0001092950781E080939A0780939B0781E1B9
:101DC00092E0909347078093460780E197E00E9456
:101DD000EB0410926307109262071092670710924B
:101DE00066078FEF9FEF909365078093640790934A
:101DF000690780936807E0914607F09147070280E2
:101E0000F381E02D80E197E0099585E091E09093E2
:101E10006D0780936C0710927C07C0933907C093BD
:101E20003A07C0933B07CF910895CF93DF9300D03B
:101E300000D000D0CDB7DEB7789484B5826084BD81
:101E400084B5816084BD85B5826085BD85B58160BE
:101E500085BD80916E00816080936E00109281003C
:101E600080918100826080938100809181008160F7
:101E700080938100809180008160809380008091B8
:101E8000B10084608093B1008091B0008160809344
:101E9000B00080917A00846080937A0080917A000B
:101EA000826080937A0080917A00816080937A00CA
:101EB00080917A00806880937A001092C100E0914E
:101EC0001407F091150730E020E040E06AE080E17F
:101ED00097E0099580919B07882321F080E197E0A6
:101EE0000E94D40C80E00E94080180E197E00E94EB
:101EF000D20720914B0780914A07280F2983E09150
:101F00001007F09111078189281708F444C180E176
:101F100097E00E94FC0280E00E940801E091140713
:101F2000F091150730E020E040E06BE080E197E0C1
:101F3000099561E082E00E947E0161E083E00E94F9
:101F40007E0161E084E00E947E0161E085E00E9404
:101F50007E0161E086E00E947E0161E087E00E94F0
:101F60007E0161E088E00E947E0161E08BE00E94DA
:101F70007E0161E08CE00E947E0161E08DE00E94C4
:101F80007E0161E08BE00E94500161E08CE00E94E4
:101F9000500161E08DE00E94500161E082E00E940A
:101FA000500161E083E00E94500161E084E00E9402
:101FB000500161E085E00E94500161E086E00E94EE
:101FC000500161E087E00E94500160E088E00E94DB
:101FD000500168EE73E080E090E00E94D4018CE94B
:101FE000882E99249A9444244A9493E0592E612C83
:101FF000712C20E4222E312C30E3A32EB12C80E171
:1020000097E00E94D40C60910A0170910B0123E0CB
:1020100030E043E050E080910801909109010E9476
:10202000D50680E197E00E94D20780E197E00E9408
:10203000FC022091060130910701809108019091E6
:102040000901820F931F9093090180930801409129
:102050000401509105015A83498340910A0150912E
:102060000B0169817A81460F571F50930B014093F2
:102070000A0101978E37910538F031952195310984
:102080003093070120930601141615060CF48DC039
:1020900089819A8191958195910990930501809309
:1020A0000401C0900A01D0900B01B6016D5F7F4F13
:1020B0007A836983E0900801F090090173E3C71601
:1020C000D104B4F080910C0190910D01E816F9064D
:1020D0007CF044968E159F055CF0809104019091F0
:1020E00005019195819591099093050180930401D3
:1020F0000EE011E01E830D83F7013396FC83EB8322
:10210000ED81FE81808191812B813C8128173907E7
:102110000CF429C124813581820F931F8E159F05F0
:102120000CF421C18281938149815A814817590752
:102130000CF419C126813781820F931F8C159D05E0
:102140000CF411C191828082938282828091040179
:102150009091050191958195910990930501809346
:102160000401E0910001F0910101EA30F1050CF069
:102170006DC13197E930F10508F0ECC0EE53FF4E28
:102180000C948A122C1226114011521164117211F2
:1021900088111A12201280919B07882321F080E178
:1021A00097E00E94D40C89819ECE4F3351050CF4E8
:1021B00078CF8091020190910301019790930301E0
:1021C0008093020182309105B1F460E08DE00E94BD
:1021D00050013092090120920801B0920B01A092A7
:1021E0000A01E981FA81F195E195F109F093050180
:1021F000E093040156CF81309105B1F460E08CE0AA
:102200000E9450013092090120920801B0920B0106
:10221000A0920A0129813A813195219531093093A3
:102220000501209304013DCF892B09F03ACF60E0EE
:102230008BE00E94500148EC50E05093090140931C
:10224000080150930B0140930A012BCF61E082E01B
:102250000E94500161E083E00E94500160E084E050
:102260000E94500161E085E00E94500161E086E03B
:102270000E94500160E087E00E94500161E061C06F
:1022800061E082E00E94500161E083E00E94500121
:1022900061E084E00E94500161E085E00E9450010D
:1022A00060E0E5CF60E082E00E94500161E083E001
:1022B0000E94500161E084E00E94500160E085E0EE
:1022C0000E94500160E01FC061E082E00E94500166
:1022D00060E083E00E94500161E084E00E945001D0
:1022E00061E0EDCF61E082E00E94500160E083E0B8
:1022F0000E94500161E084E00E94500161E085E0AD
:102300000E94500161E086E00E94500161E0B3CF7D
:1023100061E082E00E94500161E083E00E94500190
:1023200061E084E00E94500160E085E00E9450017D
:1023300060E086E00E94500160E087E00E9450016A
:1023400060E088E00E94500168EE73E080E090E079
:102350000E94D40180910001909101010196909317
:102360000101809300018D819E8108969E838D835B
:102370008E58914009F0C4CEF0E4F0937C00809137
:102380007A00806480937A0080917A0086FDFCCF89
:10239000A0917800B09179002CE630E00E94901274
:1023A000A30192010E942F12690180E197E00E942F
:1023B000D40C23E030E044E150E066E370E0C60175
:1023C0000E94D50680E197E00E94D20780E197E065
:1023D0000E94FC02D0920D01C0920C0180E197E0B6
:1023E0000E94D40CF8012681378144815581628195
:1023F0007381808191810E94D506085F1F4F2D81D6
:102400003E812017310771F780E197E00E94D207E3
:1024100080E197E00E94FC0264E170E080E090E0DF
:102420000E94D40140E050E0452B09F4E8CD0E9421
:102430000000E5CD61E082E00E94500161E057CFED
:1024400061E082E00E94500161E043CF61E070E012
:1024500070930101609300010E94FC097BCF052E5F
:1024600097FB1EF400940E94461257FD07D00E946D
:10247000591207FC03D04EF40C9446125095409527
:10248000309521953F4F4F4F5F4F08959095809520
:10249000709561957F4F8F4F9F4F08950E947B12DB
:1024A000A59F900DB49F900DA49F800D911D1124A8
:1024B0000895A1E21A2EAA1BBB1BFD010DC0AA1F85
:1024C000BB1FEE1FFF1FA217B307E407F50720F09D
:1024D000A21BB30BE40BF50B661F771F881F991F18
:1024E0001A9469F760957095809590959B01AC0161
:1024F000BD01CF010895A29FB001B39FC001A39F6A
:10250000700D811D1124911DB29F700D811D11242C
:10251000911D0895EE0FFF1F0590F491E02D099491
:102520000E947B12B7FF0895821B930B0895DC0174
:1025300001C06D9341505040E0F70895F894FFCFEB
:1025400001000300FEFF0200400030003B000200DB
:102550000200100003001400020010000300260017
:1025600002001000030038000200100003004A00BF
:102570000200100003005C000200100003006E0067
:1025800002001000030014000700100003002600E2
:1025900007001000030038000700100003004A0085
:1025A0000700100003005C00070010000300260075
:1025B0000C001000030038000C00100003004A005B
:1025C0000C00100003003800110010000300181563
:1025D000A015C019FF1815A115C819FF1815AE19B7
:1025E000FF1815AF19FF1815AE15D5168015A816CA
:1025F0003F15D316001540158D161415201600151D
:10260000A115C815DA1612158116CF15D916F115B0
:10261000DB1640152E15A415A619FF0001140A6437
:1026200064323200127A00000428961008000080FC
:1026300000400000000000C6029902990C6F02924F
:10264000027F02700200000000460A1E0A990C98E0
:082650000CEB047605DB04002D
:107E0000112484B714BE81FFF0D085E080938100F7
:107E100082E08093C00088E18093C10086E0809377
:107E2000C20080E18093C4008EE0C9D0259A86E02C
:107E300020E33CEF91E0309385002093840096BBD3
:107E4000B09BFECF1D9AA8958150A9F7CC24DD24C4
:107E500088248394B5E0AB2EA1E19A2EF3E0BF2EE7
:107E6000A2D0813461F49FD0082FAFD0023811F036
:107E7000013811F484E001C083E08DD089C08234E0
:107E800011F484E103C0853419F485E0A6D080C0E4
:107E9000853579F488D0E82EFF2485D0082F10E0AE
:107EA000102F00270E291F29000F111F8ED06801E7
:107EB0006FC0863521F484E090D080E0DECF843638
:107EC00009F040C070D06FD0082F6DD080E0C81688
:107ED00080E7D80618F4F601B7BEE895C0E0D1E017
:107EE00062D089930C17E1F7F0E0CF16F0E7DF06D8
:107EF00018F0F601B7BEE89568D007B600FCFDCFD4
:107F0000A601A0E0B1E02C9130E011968C91119780
:107F100090E0982F8827822B932B1296FA010C0160
:107F200087BEE89511244E5F5F4FF1E0A038BF0790
:107F300051F7F601A7BEE89507B600FCFDCF97BE46
:107F4000E89526C08437B1F42ED02DD0F82E2BD052
:107F50003CD0F601EF2C8F010F5F1F4F84911BD097
:107F6000EA94F801C1F70894C11CD11CFA94CF0C13
:107F7000D11C0EC0853739F428D08EE10CD085E9AC
:107F80000AD08FE07ACF813511F488E018D01DD067
:107F900080E101D065CF982F8091C00085FFFCCF94
:107FA0009093C60008958091C00087FFFCCF809118
:107FB000C00084FD01C0A8958091C6000895E0E648
:107FC000F0E098E1908380830895EDDF803219F02E
:107FD00088E0F5DFFFCF84E1DECF1F93182FE3DFCA
:107FE0001150E9F7F2DF1F91089580E0E8DFEE27F6
:047FF000FF270994CA
:027FFE00040479
:00000001FF
